{"contracts/GoalZilla.sol":{"GoalZilla":{"abi":[{"anonymous":false,"inputs":[{"indexed":true,"internalType":"uint256","name":"campaignId","type":"uint256"},{"indexed":true,"internalType":"address","name":"creator","type":"address"},{"indexed":false,"internalType":"string","name":"title","type":"string"},{"indexed":false,"internalType":"uint256","name":"goalAmount","type":"uint256"}],"name":"CampaignCreated","type":"event"},{"anonymous":false,"inputs":[{"indexed":true,"internalType":"uint256","name":"campaignId","type":"uint256"},{"indexed":true,"internalType":"address","name":"recipient","type":"address"},{"indexed":false,"internalType":"uint256","name":"amount","type":"uint256"}],"name":"FundsWithdrawn","type":"event"},{"anonymous":false,"inputs":[{"indexed":true,"internalType":"uint256","name":"campaignId","type":"uint256"},{"indexed":true,"internalType":"uint256","name":"milestoneIndex","type":"uint256"}],"name":"MilestoneAccepted","type":"event"},{"anonymous":false,"inputs":[{"indexed":true,"internalType":"uint256","name":"campaignId","type":"uint256"},{"indexed":true,"internalType":"uint256","name":"milestoneIndex","type":"uint256"},{"indexed":false,"internalType":"string","name":"proofOfCompletion","type":"string"}],"name":"MilestoneCompleted","type":"event"},{"anonymous":false,"inputs":[{"indexed":true,"internalType":"uint256","name":"campaignId","type":"uint256"},{"indexed":true,"internalType":"uint256","name":"milestoneIndex","type":"uint256"},{"indexed":false,"internalType":"uint256","name":"amount","type":"uint256"}],"name":"MilestoneFunded","type":"event"},{"anonymous":false,"inputs":[{"indexed":true,"internalType":"uint256","name":"campaignId","type":"uint256"},{"indexed":true,"internalType":"uint256","name":"milestoneIndex","type":"uint256"}],"name":"MilestoneRejected","type":"event"},{"anonymous":false,"inputs":[{"indexed":true,"internalType":"uint256","name":"campaignId","type":"uint256"},{"indexed":true,"internalType":"uint256","name":"milestoneIndex","type":"uint256"}],"name":"MilestoneUnderReview","type":"event"},{"anonymous":false,"inputs":[{"indexed":true,"internalType":"uint256","name":"campaignId","type":"uint256"},{"indexed":true,"internalType":"uint256","name":"milestoneIndex","type":"uint256"},{"indexed":true,"internalType":"address","name":"voter","type":"address"},{"indexed":false,"internalType":"bool","name":"isUpvote","type":"bool"},{"indexed":false,"internalType":"string","name":"message","type":"string"}],"name":"VoteSubmitted","type":"event"},{"inputs":[],"name":"campaignCounter","outputs":[{"internalType":"uint256","name":"","type":"uint256"}],"stateMutability":"view","type":"function"},{"inputs":[{"internalType":"uint256","name":"","type":"uint256"}],"name":"campaigns","outputs":[{"internalType":"uint256","name":"id","type":"uint256"},{"internalType":"address","name":"creator","type":"address"},{"internalType":"string","name":"title","type":"string"},{"internalType":"string","name":"description","type":"string"},{"internalType":"string","name":"category","type":"string"},{"internalType":"uint256","name":"goalAmount","type":"uint256"},{"internalType":"uint256","name":"totalFunded","type":"uint256"},{"internalType":"uint256","name":"duration","type":"uint256"},{"internalType":"uint256","name":"createdAt","type":"uint256"},{"internalType":"bool","name":"isActive","type":"bool"},{"internalType":"uint256","name":"currentMilestone","type":"uint256"},{"internalType":"string","name":"proofOfWork","type":"string"},{"internalType":"string","name":"beneficiaries","type":"string"}],"stateMutability":"view","type":"function"},{"inputs":[{"internalType":"string","name":"","type":"string"},{"internalType":"uint256","name":"","type":"uint256"}],"name":"categoryToCampaigns","outputs":[{"internalType":"uint256","name":"","type":"uint256"}],"stateMutability":"view","type":"function"},{"inputs":[{"internalType":"uint256","name":"_campaignId","type":"uint256"},{"internalType":"uint256","name":"_milestoneIndex","type":"uint256"},{"internalType":"string","name":"_proofOfCompletion","type":"string"}],"name":"completeMilestone","outputs":[],"stateMutability":"nonpayable","type":"function"},{"inputs":[{"internalType":"string","name":"_title","type":"string"},{"internalType":"string","name":"_description","type":"string"},{"internalType":"string","name":"_category","type":"string"},{"internalType":"uint256","name":"_goalAmount","type":"uint256"},{"internalType":"uint256","name":"_duration","type":"uint256"},{"internalType":"string[]","name":"_milestoneNames","type":"string[]"},{"internalType":"uint256[]","name":"_milestoneTargets","type":"uint256[]"},{"internalType":"string","name":"_proofOfWork","type":"string"},{"internalType":"string","name":"_beneficiaries","type":"string"},{"internalType":"string[]","name":"_media","type":"string[]"}],"name":"createCampaign","outputs":[{"internalType":"uint256","name":"","type":"uint256"}],"stateMutability":"payable","type":"function"},{"inputs":[{"internalType":"uint256","name":"","type":"uint256"},{"internalType":"address","name":"","type":"address"}],"name":"donations","outputs":[{"internalType":"uint256","name":"","type":"uint256"}],"stateMutability":"view","type":"function"},{"inputs":[{"internalType":"uint256","name":"_campaignId","type":"uint256"},{"internalType":"uint256","name":"_milestoneIndex","type":"uint256"}],"name":"fundMilestone","outputs":[],"stateMutability":"payable","type":"function"},{"inputs":[{"internalType":"uint256","name":"_campaignId","type":"uint256"}],"name":"getCampaignDetails","outputs":[{"components":[{"internalType":"string","name":"description","type":"string"},{"internalType":"string","name":"proofOfWork","type":"string"},{"internalType":"string","name":"beneficiaries","type":"string"},{"internalType":"string[]","name":"media","type":"string[]"}],"internalType":"struct GoalZilla.CampaignDetails","name":"","type":"tuple"}],"stateMutability":"view","type":"function"},{"inputs":[{"internalType":"uint256","name":"_campaignId","type":"uint256"}],"name":"getCampaignMetadata","outputs":[{"components":[{"internalType":"uint256","name":"id","type":"uint256"},{"internalType":"address","name":"creator","type":"address"},{"internalType":"string","name":"title","type":"string"},{"internalType":"string","name":"category","type":"string"},{"internalType":"uint256","name":"goalAmount","type":"uint256"},{"internalType":"uint256","name":"totalFunded","type":"uint256"},{"internalType":"bool","name":"isActive","type":"bool"},{"internalType":"uint256","name":"createdAt","type":"uint256"},{"internalType":"uint256","name":"duration","type":"uint256"}],"internalType":"struct GoalZilla.CampaignMetadata","name":"","type":"tuple"}],"stateMutability":"view","type":"function"},{"inputs":[{"internalType":"uint256","name":"_campaignId","type":"uint256"}],"name":"getCampaignParticipants","outputs":[{"internalType":"address[]","name":"donors","type":"address[]"},{"internalType":"address[]","name":"stakeholders","type":"address[]"}],"stateMutability":"view","type":"function"},{"inputs":[{"internalType":"uint256","name":"_start","type":"uint256"},{"internalType":"uint256","name":"_end","type":"uint256"}],"name":"getCampaignsByRange","outputs":[{"internalType":"uint256[]","name":"","type":"uint256[]"}],"stateMutability":"view","type":"function"},{"inputs":[{"internalType":"string","name":"_category","type":"string"}],"name":"getCategoryStats","outputs":[{"internalType":"uint256","name":"totalCampaigns","type":"uint256"},{"internalType":"uint256","name":"activeCampaigns","type":"uint256"}],"stateMutability":"view","type":"function"},{"inputs":[{"internalType":"uint256","name":"_campaignId","type":"uint256"},{"internalType":"uint256","name":"_milestoneIndex","type":"uint256"}],"name":"getMilestoneMetadata","outputs":[{"components":[{"internalType":"string","name":"name","type":"string"},{"internalType":"uint256","name":"targetAmount","type":"uint256"},{"internalType":"bool","name":"isCompleted","type":"bool"},{"internalType":"bool","name":"isFunded","type":"bool"},{"internalType":"bool","name":"isUnderReview","type":"bool"}],"internalType":"struct GoalZilla.MilestoneMetadata","name":"","type":"tuple"}],"stateMutability":"view","type":"function"},{"inputs":[{"internalType":"uint256","name":"_campaignId","type":"uint256"},{"internalType":"uint256","name":"_milestoneIndex","type":"uint256"}],"name":"getMilestoneProof","outputs":[{"internalType":"string","name":"proofOfCompletion","type":"string"},{"internalType":"uint256","name":"fundsReleased","type":"uint256"}],"stateMutability":"view","type":"function"},{"inputs":[{"internalType":"uint256","name":"_campaignId","type":"uint256"},{"internalType":"uint256","name":"_milestoneIndex","type":"uint256"}],"name":"getMilestoneStatus","outputs":[{"internalType":"bool","name":"isCompleted","type":"bool"},{"internalType":"bool","name":"isFunded","type":"bool"},{"internalType":"bool","name":"isUnderReview","type":"bool"},{"internalType":"uint256","name":"voteCount","type":"uint256"}],"stateMutability":"view","type":"function"},{"inputs":[{"internalType":"uint256","name":"","type":"uint256"},{"internalType":"uint256","name":"","type":"uint256"},{"internalType":"uint256","name":"","type":"uint256"}],"name":"milestoneVotes","outputs":[{"internalType":"bool","name":"isUpvote","type":"bool"},{"internalType":"string","name":"message","type":"string"},{"internalType":"address","name":"voter","type":"address"}],"stateMutability":"view","type":"function"},{"inputs":[{"internalType":"uint256","name":"_campaignId","type":"uint256"},{"internalType":"uint256","name":"_milestoneIndex","type":"uint256"}],"name":"reviewMilestone","outputs":[],"stateMutability":"nonpayable","type":"function"},{"inputs":[{"internalType":"uint256","name":"_campaignId","type":"uint256"},{"internalType":"uint256","name":"_milestoneIndex","type":"uint256"},{"internalType":"bool","name":"_isUpvote","type":"bool"},{"internalType":"string","name":"_message","type":"string"}],"name":"submitVote","outputs":[],"stateMutability":"nonpayable","type":"function"}],"evm":{"bytecode":{"linkReferences":{},"object":"60808060405234601957600080556128af908161001f8239f35b600080fdfe6080604052600436101561001257600080fd5b60003560e01c8063141961bc146122225780632e01ec66146121e257806336738c1e146121555780633b30f38d1461202a5780635afce31e14611d5f57806369b660de14611c4f5780637b20144114611b995780637fbedb751461189c5780638a8d30aa146115775780638c6ab238146115055780638e3dfbbb14611391578063b6d07a4314611317578063d59a94d71461050a578063d993de6214610367578063e8049da1146102c2578063ee1554a31461026f578063fc9a7b31146101055763fca604d7146100e257600080fd5b34610100576000366003190112610100576020600054604051908152f35b600080fd5b3461010057610113366124e3565b906101216000548210612687565b80600052600160205261013d600c6040600020015483106126de565b80600052600160205261016160018060a01b036001604060002001541633146127c2565b8060005260036020526040600020826000526020526040600020600080916000908054905b8183106102305750505011156101e35780600052600160205260056101b283600c604060002001612735565b5001805460ff191690557fb7ab333173a25d27082c5bcc7f95d330190ebf0d3539c7761583c5f5f6ce1566600080a3005b80600052600160205260056101ff83600c604060002001612735565b5001805460ff191690557f4e2fd11f84344693b41d2aba9910e33b34a4f02d4d3a65b65b2201f3c8fa3c89600080a3005b90919260ff61023f8584612515565b5054161561025c5761025260019161275e565b935b019190610186565b929361026960019161275e565b94610254565b34610100576040366003190112610100576024356001600160a01b038116810361010057600435600052600260205260406000209060018060a01b03166000526020526020604060002054604051908152f35b346101005760806102d2366124e3565b906102e06000548210612687565b8060005260016020526102fc600c6040600020015483106126de565b80600052600160205261031682600c604060002001612735565b509160ff60056002850154940154169160005260036020526040600020906000526020526040600020549060ff604051938181161515855260081c1615156020840152151560408301526060820152f35b346101005760203660031901126101005760043560608060405161038a816123bb565b81815281602082015281604082015201526103a86000548210612687565b60005260016020526040600020600a8101604051916103c6836123bb565b6103d2600382016123f7565b83526103f3600f6103e5600e84016123f7565b9260208601938452016123f7565b90604084019182528254610406816125f2565b9361041460405195866123d6565b818552602085019060005260206000206000915b8383106104ed5761045f8888610485896104728a6060860194855260405196879660208852516080602089015260a08801906124be565b9051868203601f190160408801526124be565b9051848203601f190160608601526124be565b905190601f19838203016080840152815180825260208201916020808360051b8301019401926000915b8383106104bc5786860387f35b9193955091936020806104db600193601f1986820301875289516124be565b970193019301909286959492936104af565b6001602081926104fc856123f7565b815201920192019190610428565b610140366003190112610100576004356001600160401b03811161010057610536903690600401612547565b6024356001600160401b03811161010057610555903690600401612547565b6044356001600160401b03811161010057610574903690600401612547565b60843560643560a4356001600160401b03811161010057610599903690600401612609565b9160c435956001600160401b0387116101005736602388011215610100578660040135966105c6886125f2565b976105d4604051998a6123d6565b808952602460208a019160051b8301019136831161010057602401905b8282106113075750505060e4356001600160401b0381116101005761061a903690600401612547565b610104356001600160401b0381116101005761063a903690600401612547565b610124356001600160401b0381116101005761065a903690600401612609565b9185156112ac57841515806112a0575b156112405786518a51036111e75786511561118f576000549461068c8661275e565b600055856000526001602052604060002099868b5560018b0160018060a01b0333166bffffffffffffffffffffffff60a01b82541617905560028b0186516001600160401b038111610b71576106e2825461234a565b601f811161115d575b506020601f82116001146110f757908061071b926000916110ec575b508160011b916000199060031b1c19161790565b90555b805160038c01916001600160401b038211610b715761073d835461234a565b601f81116110ba575b50602090601f831160011461105357610778929160009183611048575b50508160011b916000199060031b1c19161790565b90555b60048a0189516001600160401b038111610b7157610799825461234a565b601f8111611016575b506020601f8211600114610fb05790806107d192600091610fa557508160011b916000199060031b1c19161790565b90555b60058a0187905560078a01554260088a015560098901805460ff191660011790558051600e8a01916001600160401b038211610b7157610814835461234a565b601f8111610f73575b50602090601f8311600114610f0c5761084e929160009183610f015750508160011b916000199060031b1c19161790565b90555b8051600f8901916001600160401b038211610b7157610870835461234a565b601f8111610ecf575b50602090601f8311600114610e68576108aa929160009183610e5d5750508160011b916000199060031b1c19161790565b90555b8051600a880191600160401b8211610b71578254828455808310610ddf575b50600092835260208084209899989391015b828210610ccc5750505050600c60009501945b8451811015610c3457610904818661276d565b5161090f828a61276d565b516040519160e083018381106001600160401b03821117610b7157604052825260208201908152604082016000815260608301906000825260206040519161095782846123d6565b600083526080860192835260a08601936000855260c0870195600087528d54600160401b811015610b7157808f600161099293018155612735565b989098610c1e57518051906001600160401b038211610b71576109b58a5461234a565b601f8111610bee575b508590601f8311600114610b87576109ee929160009183610ab75750508160011b916000199060031b1c19161790565b88555b516001880155610a146002880192511515839060ff801983541691151516179055565b51815461ff00191690151560081b61ff001617905590518051600386019290916001600160401b038311610b7157610a4c845461234a565b601f8111610b36575b5081601f8411600114610ac2575092610a9283610ab1979460019a999794600597600092610ab75750508160011b916000199060031b1c19161790565b90555b51600484015551151591019060ff801983541691151516179055565b016108f1565b015190503880610763565b9190601f1984168560005283600020936000905b828210610b1e57505093600199989693600596938b9383610ab19b9810610b05575b505050811b019055610a95565b015160001960f88460031b161c19169055388080610af8565b80600186978294978701518155019601940190610ad6565b610b61908560005283600020601f860160051c810191858710610b67575b601f0160051c019061280e565b8f610a55565b9091508190610b54565b634e487b7160e01b600052604160045260246000fd5b90601f198316918b600052876000209260005b89828210610bd8575050908460019594939210610bbf575b505050811b0188556109f1565b015160001960f88460031b161c19169055388080610bb2565b6001859682939686015181550195019301610b9a565b610c18908b60005287600020601f850160051c810191898610610b6757601f0160051c019061280e565b386109be565b634e487b7160e01b600052600060045260246000fd5b5060405186516020908290610c4c81838c860161249b565b8101600481520301902092835493600160401b851015610b7157610cc18492610c9e877f825fb10f7650ed27414d6f86acdf7d5946927d9b25001f045f1a2435deec02fe94600160209a0181556125da565b81549060031b9086821b91600019901b19161790556040519182913396836124f9565b0390a3604051908152f35b80999899518051906001600160401b038211610b7157610cec865461234a565b601f8111610dad575b50602090601f8311600114610d405792610d2e83600195946020948796600092610ab75750508160011b916000199060031b1c19161790565b87555b019401910190929897986108de565b90601f1983169187600052816000209260005b818110610d955750936020936001969387969383889510610d7c575b505050811b018755610d31565b015160001960f88460031b161c19169055388080610d6f565b92936020600181928786015181550195019301610d53565b610dd990876000526020600020601f850160051c81019160208610610b6757601f0160051c019061280e565b8d610cf5565b8360005282602060002091820191015b818110610dfc57506108cc565b80610e096001925461234a565b80610e16575b5001610def565b601f81118314610e2c5750600081555b8d610e0f565b610e4a908260005283601f6020600020920160051c8201910161280e565b8060005260006020812081835555610e26565b015190508c80610763565b90601f1983169184600052816000209260005b818110610eb75750908460019594939210610e9e575b505050811b0190556108ad565b015160001960f88460031b161c191690558b8080610e91565b92936020600181928786015181550195019301610e7b565b610efb90846000526020600020601f850160051c81019160208610610b6757601f0160051c019061280e565b8b610879565b015190508d80610763565b90601f1983169184600052816000209260005b818110610f5b5750908460019594939210610f42575b505050811b019055610851565b015160001960f88460031b161c191690558c8080610f35565b92936020600181928786015181550195019301610f1f565b610f9f90846000526020600020601f850160051c81019160208610610b6757601f0160051c019061280e565b8c61081d565b90508c01518f610707565b60008381528181209190601f198416908e5b828210610ffd5750509083600194939210610fe4575b5050811b0190556107d4565b8d015160001960f88460031b161c191690558e80610fd8565b600184956020939584930151815501940192018e610fc2565b61104290836000526020600020601f840160051c81019160208510610b6757601f0160051c019061280e565b8d6107a2565b015190508f80610763565b90601f1983169184600052816000209260005b8181106110a25750908460019594939210611089575b505050811b01905561077b565b015160001960f88460031b161c191690558e808061107c565b92936020600181928786015181550195019301611066565b6110e690846000526020600020601f850160051c81019160208610610b6757601f0160051c019061280e565b8e610746565b905089015138610707565b601f1982169083600052806000209160005b8b828210611145575050908360019493921061112c575b5050811b01905561071e565b8a015160001960f88460031b161c191690558f80611120565b60018495602093958493015181550194019201611109565b61118990836000526020600020601f840160051c81019160208510610b6757601f0160051c019061280e565b8e6106eb565b60405162461bcd60e51b815260206004820152602a60248201527f476f616c5a696c6c613a204174206c65617374206f6e65206d696c6573746f6e60448201526919481c995c5d5a5c995960b21b6064820152608490fd5b60405162461bcd60e51b815260206004820152602b60248201527f476f616c5a696c6c613a204d696c6573746f6e6520617272617973206c656e6760448201526a0e8d040dad2e6dac2e8c6d60ab1b6064820152608490fd5b60405162461bcd60e51b815260206004820152603260248201527f476f616c5a696c6c613a204475726174696f6e206d757374206265206265747760448201527165656e203120616e6420333635206461797360701b6064820152608490fd5b5061016d85111561066a565b60405162461bcd60e51b815260206004820152602d60248201527f476f616c5a696c6c613a20476f616c20616d6f756e74206d757374206265206760448201526c0726561746572207468616e203609c1b6064820152608490fd5b81358152602091820191016105f1565b34610100576040366003190112610100576004356001600160401b03811161010057611347903690600401612547565b611363602060243592816040519382858094519384920161249b565b81016004815203019020805482101561010057602091611382916125da565b90549060031b1c604051908152f35b346101005760203660031901126101005760043560006101006040516113b68161239f565b828152826020820152606060408201526060808201528260808201528260a08201528260c08201528260e082015201526113f36000548210612687565b60005260016020526040600020805460018060a01b0360018301541691600581015490600681015460ff6009830154166008830154916114de6007850154946040519761143f8961239f565b8852602088019889526114cb61146a600461145c600285016123f7565b9360408c01948552016123f7565b9160608a0192835260808a0198895260a08a0194855260c08a01951515865260e08a019687526101008a019788526040519a8b9a60208c525160208c015260018060a01b0390511660408b01525161012060608b01526101408a01906124be565b9051888203601f190160808a01526124be565b945160a08701525160c086015251151560e085015251610100840152516101208301520390f35b34610100576020366003190112610100576004356115266000548210612687565b60005260016020526115656040600020611573611551601061154a600b8501612825565b9301612825565b60405193849360408552604085019061259d565b90838203602085015261259d565b0390f35b346101005760803660031901126101005760043560243560443590811515809203610100576064356001600160401b038111610100576115bb903690600401612547565b926115c96000548210612687565b8060005260016020526115e5600c6040600020015483106126de565b6000928160005260016020526116016010604060002001612825565b60005b815181101561189257336001600160a01b03611620838561276d565b51161461162f57600101611604565b50509091925060015b1561184d57816000526003602052604060002083600052602052604060002060405190606082018281106001600160401b03821117610b71576040528282526020820186815260408301913383528054600160401b811015610b71576116a391600182018155612515565b939093610c1e576116c390511515849060ff801983541691151516179055565b51805160018401916001600160401b038211610b71576116e3835461234a565b601f811161181b575b50602090601f831160011461178d57827f36fb090632506aead86459b68597320c658b8b9af42846d69cbbf6cf953d13e7979695936002959361174593600092610e5d5750508160011b916000199060031b1c19161790565b90555b51910180546001600160a01b0319166001600160a01b039290921691909117905560408051918252602082018190523395829161178891908301906124be565b0390a4005b90601f1983169184600052816000209260005b81811061180357509260019285927f36fb090632506aead86459b68597320c658b8b9af42846d69cbbf6cf953d13e79a99989660029896106117ea575b505050811b019055611748565b015160001960f88460031b161c191690558b80806117dd565b929360206001819287860151815501950193016117a0565b61184790846000526020600020601f850160051c81019160208610610b6757601f0160051c019061280e565b896116ec565b60405162461bcd60e51b815260206004820152601c60248201527f476f616c5a696c6c613a204e6f742061207374616b65686f6c646572000000006044820152606490fd5b5050909192611638565b34610100576060366003190112610100576024356004356044356001600160401b038111610100576118d2903690600401612547565b6118df6000548310612687565b81600052600160205261190360018060a01b036001604060002001541633146127c2565b81600052600160205261191f600c6040600020015484106126de565b81600052600160205261193983600c604060002001612735565b5060028101805460ff8160081c1615611b545760ff8116611b005760ff191660011790558151600382019290916001600160401b038311610b715783859361198288965461234a565b601f8111611ace575b506020601f8211600114611a3b57927fa2efa9e8a9cb69da31069e845d86ddc3da31da23669a47f5ec5f60247d31a16b94926119e383600594611a0697600091611a3057508160011b916000199060031b1c19161790565b90555b01600160ff198254161790556040519182916020835260208301906124be565b0390a37f58f6cfb6f584c040922a278034d1656f5a3b2db9f6bb96d7fcb08e0e618bc2f1600080a3005b90508601518d610707565b601f1982169083600052806000209160005b818110611ab0575083611a0696937fa2efa9e8a9cb69da31069e845d86ddc3da31da23669a47f5ec5f60247d31a16b98969360059660019410611a97575b5050811b0190556119e6565b87015160001960f88460031b161c191690558c80611a8b565b8288015184558b99508a985060019093019260209283019201611a4d565b611afa90836000526020600020601f840160051c81019160208510610b6757601f0160051c019061280e565b8861198b565b60405162461bcd60e51b815260206004820152602660248201527f476f616c5a696c6c613a204d696c6573746f6e6520616c726561647920636f6d6044820152651c1b195d195960d21b6064820152608490fd5b60405162461bcd60e51b815260206004820152601f60248201527f476f616c5a696c6c613a204d696c6573746f6e65206e6f742066756e646564006044820152606490fd5b34610100576020366003190112610100576004356001600160401b038111610100576020611bce611be1923690600401612547565b816040519382858094519384920161249b565b810160048152030190206000808254915b828110611c09576040838382519182526020820152f35b611c1381856125da565b90549060031b1c600052600160205260ff60096040600020015416611c3b575b600101611bf2565b90611c4760019161275e565b919050611c33565b3461010057611d3c611cca611c63366124e3565b9060006080604051611c7481612384565b606081528260208201528260408201528260608201520152611c996000548210612687565b806000526001602052611cb5600c6040600020015483106126de565b6000526001602052600c604060002001612735565b506001810154600282015460ff60058401541690611cf360405194611cee86612384565b6123f7565b8452602084019283526040840160ff82161515815260ff606086019260081c1615158252608085019215158352604051958695602087525160a0602088015260c08701906124be565b935160408601525115156060850152511515608084015251151560a08301520390f35b611d68366124e3565b90611d766000548210612687565b80600052600160205260ff6009604060002001541615611fdb5760008181526001602052604090206008810154600790910154620151808082029180159083049091141715611fc557611dc891612751565b421015611f8057806000526001602052611deb600c6040600020015483106126de565b8060005260016020526040600020611e0683600c8301612735565b50600281019081549060ff8260081c16611f2f57600101543403611ede576101009061ff00191617905560068101611e3f348254612751565b9055600082815260026020908152604080832033845290915290205415611ebd575b50806000526002602052604060002060018060a01b0333166000526020526040600020611e8f348254612751565b90557f4e84fd279e9b8a989cf81bca6d0a9c62a19954af44c7ee39600aebb2ba4734e56020604051348152a3005b611ed890611ece33600b8301612781565b6010339101612781565b82611e61565b60405162461bcd60e51b815260206004820152602360248201527f476f616c5a696c6c613a20496e636f72726563742066756e64696e6720616d6f6044820152621d5b9d60ea1b6064820152608490fd5b60405162461bcd60e51b815260206004820152602360248201527f476f616c5a696c6c613a204d696c6573746f6e6520616c72656164792066756e60448201526219195960ea1b6064820152608490fd5b60405162461bcd60e51b815260206004820152601d60248201527f476f616c5a696c6c613a2043616d706169676e2068617320656e6465640000006044820152606490fd5b634e487b7160e01b600052601160045260246000fd5b60405162461bcd60e51b815260206004820152602160248201527f476f616c5a696c6c613a2043616d706169676e206973206e6f742061637469766044820152606560f81b6064820152608490fd5b3461010057612038366124e3565b81811061211057818103908111611fc55760018101809111611fc55761205d816125f2565b9161206b60405193846123d6565b818352612077826125f2565b6020840190601f190136823760005b838110806120fc575b156120b757806120a26120b29285612751565b6120ac828861276d565b5261275e565b612086565b81856040519182916020830190602084525180915260408301919060005b8181106120e3575050500390f35b82518452859450602093840193909201916001016120d5565b506121078184612751565b6000541161208f565b60405162461bcd60e51b815260206004820152601860248201527f476f616c5a696c6c613a20496e76616c69642072616e676500000000000000006044820152606490fd5b34610100576060366003190112610100576044356004356000526003602052604060002060243560005260205260406000209081548110156101005761219a91612515565b5060ff8154166121ac600183016123f7565b91600260018060a01b03910154166121d8604051938493151584526060602085015260608401906124be565b9060408301520390f35b34610100576122016121f3366124e3565b90611c996000548210612687565b506122136003600483015492016123f7565b611573604051928392836124f9565b3461010057602036600319011261010057600435600052600160205260406000208054600160a01b600190036001830154169160028101612262906123f7565b9061226f600382016123f7565b61227b600483016123f7565b9060058301549160068401546007850154600886015491600987015460ff1693600d88015495600e89016122ae906123f7565b98600f016122bb906123f7565b996040519c8d9c8d5260208d015260408c016101a090526101a08c016122e0916124be565b8b810360608d01526122f1916124be565b8a810360808c0152612302916124be565b9560a08a015260c089015260e08801526101008701521515610120860152610140850152838103610160850152612338916124be565b828103610180840152611573916124be565b90600182811c9216801561237a575b602083101461236457565b634e487b7160e01b600052602260045260246000fd5b91607f1691612359565b60a081019081106001600160401b03821117610b7157604052565b61012081019081106001600160401b03821117610b7157604052565b608081019081106001600160401b03821117610b7157604052565b90601f801991011681019081106001600160401b03821117610b7157604052565b906040519182600082549261240b8461234a565b80845293600181169081156124795750600114612432575b50612430925003836123d6565b565b90506000929192526020600020906000915b81831061245d5750509060206124309282010138612423565b6020919350806001915483858901015201910190918492612444565b90506020925061243094915060ff191682840152151560051b82010138612423565b60005b8381106124ae5750506000910152565b818101518382015260200161249e565b906020916124d78151809281855285808601910161249b565b601f01601f1916010190565b6040906003190112610100576004359060243590565b9291906125106020916040865260408601906124be565b930152565b8054821015612531576000526003602060002091020190600090565b634e487b7160e01b600052603260045260246000fd5b81601f82011215610100578035906001600160401b038211610b71576040519261257b601f8401601f1916602001856123d6565b8284526020838301011161010057816000926020809301838601378301015290565b906020808351928381520192019060005b8181106125bb5750505090565b82516001600160a01b03168452602093840193909201916001016125ae565b80548210156125315760005260206000200190600090565b6001600160401b038111610b715760051b60200190565b9080601f83011215610100578135612620816125f2565b9261262e60405194856123d6565b81845260208085019260051b820101918383116101005760208201905b83821061265a57505050505090565b81356001600160401b0381116101005760209161267c87848094880101612547565b81520191019061264b565b1561268e57565b60405162461bcd60e51b815260206004820152602260248201527f476f616c5a696c6c613a2043616d706169676e20646f6573206e6f74206578696044820152611cdd60f21b6064820152608490fd5b156126e557565b60405162461bcd60e51b815260206004820152602260248201527f476f616c5a696c6c613a20496e76616c6964206d696c6573746f6e6520696e646044820152610caf60f31b6064820152608490fd5b8054821015612531576000526006602060002091020190600090565b91908201809211611fc557565b6000198114611fc55760010190565b80518210156125315760209160051b010190565b8054600160401b811015610b715761279e916001820181556125da565b81546001600160a01b0393841660039290921b91821b9390911b1916919091179055565b156127c957565b60405162461bcd60e51b815260206004820152601f60248201527f476f616c5a696c6c613a204e6f742063616d706169676e2063726561746f72006044820152606490fd5b818110612819575050565b6000815560010161280e565b906040519182815491828252602082019060005260206000209260005b818110612857575050612430925003836123d6565b84546001600160a01b031683526001948501948794506020909301920161284256fea26469706673582212205887b8a478decbd44bd10de20861eea0d103764f04896868a662eb6bd92c306564736f6c634300081c0033","opcodes":"PUSH1 0x80 DUP1 PUSH1 0x40 MSTORE CALLVALUE PUSH1 0x19 JUMPI PUSH1 0x0 DUP1 SSTORE PUSH2 0x28AF SWAP1 DUP2 PUSH2 0x1F DUP3 CODECOPY RETURN JUMPDEST PUSH1 0x0 DUP1 REVERT INVALID PUSH1 0x80 PUSH1 0x40 MSTORE PUSH1 0x4 CALLDATASIZE LT ISZERO PUSH2 0x12 JUMPI PUSH1 0x0 DUP1 REVERT JUMPDEST PUSH1 0x0 CALLDATALOAD PUSH1 0xE0 SHR DUP1 PUSH4 0x141961BC EQ PUSH2 0x2222 JUMPI DUP1 PUSH4 0x2E01EC66 EQ PUSH2 0x21E2 JUMPI DUP1 PUSH4 0x36738C1E EQ PUSH2 0x2155 JUMPI DUP1 PUSH4 0x3B30F38D EQ PUSH2 0x202A JUMPI DUP1 PUSH4 0x5AFCE31E EQ PUSH2 0x1D5F JUMPI DUP1 PUSH4 0x69B660DE EQ PUSH2 0x1C4F JUMPI DUP1 PUSH4 0x7B201441 EQ PUSH2 0x1B99 JUMPI DUP1 PUSH4 0x7FBEDB75 EQ PUSH2 0x189C JUMPI DUP1 PUSH4 0x8A8D30AA EQ PUSH2 0x1577 JUMPI DUP1 PUSH4 0x8C6AB238 EQ PUSH2 0x1505 JUMPI DUP1 PUSH4 0x8E3DFBBB EQ PUSH2 0x1391 JUMPI DUP1 PUSH4 0xB6D07A43 EQ PUSH2 0x1317 JUMPI DUP1 PUSH4 0xD59A94D7 EQ PUSH2 0x50A JUMPI DUP1 PUSH4 0xD993DE62 EQ PUSH2 0x367 JUMPI DUP1 PUSH4 0xE8049DA1 EQ PUSH2 0x2C2 JUMPI DUP1 PUSH4 0xEE1554A3 EQ PUSH2 0x26F JUMPI DUP1 PUSH4 0xFC9A7B31 EQ PUSH2 0x105 JUMPI PUSH4 0xFCA604D7 EQ PUSH2 0xE2 JUMPI PUSH1 0x0 DUP1 REVERT JUMPDEST CALLVALUE PUSH2 0x100 JUMPI PUSH1 0x0 CALLDATASIZE PUSH1 0x3 NOT ADD SLT PUSH2 0x100 JUMPI PUSH1 0x20 PUSH1 0x0 SLOAD PUSH1 0x40 MLOAD SWAP1 DUP2 MSTORE RETURN JUMPDEST PUSH1 0x0 DUP1 REVERT JUMPDEST CALLVALUE PUSH2 0x100 JUMPI PUSH2 0x113 CALLDATASIZE PUSH2 0x24E3 JUMP JUMPDEST SWAP1 PUSH2 0x121 PUSH1 0x0 SLOAD DUP3 LT PUSH2 0x2687 JUMP JUMPDEST DUP1 PUSH1 0x0 MSTORE PUSH1 0x1 PUSH1 0x20 MSTORE PUSH2 0x13D PUSH1 0xC PUSH1 0x40 PUSH1 0x0 KECCAK256 ADD SLOAD DUP4 LT PUSH2 0x26DE JUMP JUMPDEST DUP1 PUSH1 0x0 MSTORE PUSH1 0x1 PUSH1 0x20 MSTORE PUSH2 0x161 PUSH1 0x1 DUP1 PUSH1 0xA0 SHL SUB PUSH1 0x1 PUSH1 0x40 PUSH1 0x0 KECCAK256 ADD SLOAD AND CALLER EQ PUSH2 0x27C2 JUMP JUMPDEST DUP1 PUSH1 0x0 MSTORE PUSH1 0x3 PUSH1 0x20 MSTORE PUSH1 0x40 PUSH1 0x0 KECCAK256 DUP3 PUSH1 0x0 MSTORE PUSH1 0x20 MSTORE PUSH1 0x40 PUSH1 0x0 KECCAK256 PUSH1 0x0 DUP1 SWAP2 PUSH1 0x0 SWAP1 DUP1 SLOAD SWAP1 JUMPDEST DUP2 DUP4 LT PUSH2 0x230 JUMPI POP POP POP GT ISZERO PUSH2 0x1E3 JUMPI DUP1 PUSH1 0x0 MSTORE PUSH1 0x1 PUSH1 0x20 MSTORE PUSH1 0x5 PUSH2 0x1B2 DUP4 PUSH1 0xC PUSH1 0x40 PUSH1 0x0 KECCAK256 ADD PUSH2 0x2735 JUMP JUMPDEST POP ADD DUP1 SLOAD PUSH1 0xFF NOT AND SWAP1 SSTORE PUSH32 0xB7AB333173A25D27082C5BCC7F95D330190EBF0D3539C7761583C5F5F6CE1566 PUSH1 0x0 DUP1 LOG3 STOP JUMPDEST DUP1 PUSH1 0x0 MSTORE PUSH1 0x1 PUSH1 0x20 MSTORE PUSH1 0x5 PUSH2 0x1FF DUP4 PUSH1 0xC PUSH1 0x40 PUSH1 0x0 KECCAK256 ADD PUSH2 0x2735 JUMP JUMPDEST POP ADD DUP1 SLOAD PUSH1 0xFF NOT AND SWAP1 SSTORE PUSH32 0x4E2FD11F84344693B41D2ABA9910E33B34A4F02D4D3A65B65B2201F3C8FA3C89 PUSH1 0x0 DUP1 LOG3 STOP JUMPDEST SWAP1 SWAP2 SWAP3 PUSH1 0xFF PUSH2 0x23F DUP6 DUP5 PUSH2 0x2515 JUMP JUMPDEST POP SLOAD AND ISZERO PUSH2 0x25C JUMPI PUSH2 0x252 PUSH1 0x1 SWAP2 PUSH2 0x275E JUMP JUMPDEST SWAP4 JUMPDEST ADD SWAP2 SWAP1 PUSH2 0x186 JUMP JUMPDEST SWAP3 SWAP4 PUSH2 0x269 PUSH1 0x1 SWAP2 PUSH2 0x275E JUMP JUMPDEST SWAP5 PUSH2 0x254 JUMP JUMPDEST CALLVALUE PUSH2 0x100 JUMPI PUSH1 0x40 CALLDATASIZE PUSH1 0x3 NOT ADD SLT PUSH2 0x100 JUMPI PUSH1 0x24 CALLDATALOAD PUSH1 0x1 PUSH1 0x1 PUSH1 0xA0 SHL SUB DUP2 AND DUP2 SUB PUSH2 0x100 JUMPI PUSH1 0x4 CALLDATALOAD PUSH1 0x0 MSTORE PUSH1 0x2 PUSH1 0x20 MSTORE PUSH1 0x40 PUSH1 0x0 KECCAK256 SWAP1 PUSH1 0x1 DUP1 PUSH1 0xA0 SHL SUB AND PUSH1 0x0 MSTORE PUSH1 0x20 MSTORE PUSH1 0x20 PUSH1 0x40 PUSH1 0x0 KECCAK256 SLOAD PUSH1 0x40 MLOAD SWAP1 DUP2 MSTORE RETURN JUMPDEST CALLVALUE PUSH2 0x100 JUMPI PUSH1 0x80 PUSH2 0x2D2 CALLDATASIZE PUSH2 0x24E3 JUMP JUMPDEST SWAP1 PUSH2 0x2E0 PUSH1 0x0 SLOAD DUP3 LT PUSH2 0x2687 JUMP JUMPDEST DUP1 PUSH1 0x0 MSTORE PUSH1 0x1 PUSH1 0x20 MSTORE PUSH2 0x2FC PUSH1 0xC PUSH1 0x40 PUSH1 0x0 KECCAK256 ADD SLOAD DUP4 LT PUSH2 0x26DE JUMP JUMPDEST DUP1 PUSH1 0x0 MSTORE PUSH1 0x1 PUSH1 0x20 MSTORE PUSH2 0x316 DUP3 PUSH1 0xC PUSH1 0x40 PUSH1 0x0 KECCAK256 ADD PUSH2 0x2735 JUMP JUMPDEST POP SWAP2 PUSH1 0xFF PUSH1 0x5 PUSH1 0x2 DUP6 ADD SLOAD SWAP5 ADD SLOAD AND SWAP2 PUSH1 0x0 MSTORE PUSH1 0x3 PUSH1 0x20 MSTORE PUSH1 0x40 PUSH1 0x0 KECCAK256 SWAP1 PUSH1 0x0 MSTORE PUSH1 0x20 MSTORE PUSH1 0x40 PUSH1 0x0 KECCAK256 SLOAD SWAP1 PUSH1 0xFF PUSH1 0x40 MLOAD SWAP4 DUP2 DUP2 AND ISZERO ISZERO DUP6 MSTORE PUSH1 0x8 SHR AND ISZERO ISZERO PUSH1 0x20 DUP5 ADD MSTORE ISZERO ISZERO PUSH1 0x40 DUP4 ADD MSTORE PUSH1 0x60 DUP3 ADD MSTORE RETURN JUMPDEST CALLVALUE PUSH2 0x100 JUMPI PUSH1 0x20 CALLDATASIZE PUSH1 0x3 NOT ADD SLT PUSH2 0x100 JUMPI PUSH1 0x4 CALLDATALOAD PUSH1 0x60 DUP1 PUSH1 0x40 MLOAD PUSH2 0x38A DUP2 PUSH2 0x23BB JUMP JUMPDEST DUP2 DUP2 MSTORE DUP2 PUSH1 0x20 DUP3 ADD MSTORE DUP2 PUSH1 0x40 DUP3 ADD MSTORE ADD MSTORE PUSH2 0x3A8 PUSH1 0x0 SLOAD DUP3 LT PUSH2 0x2687 JUMP JUMPDEST PUSH1 0x0 MSTORE PUSH1 0x1 PUSH1 0x20 MSTORE PUSH1 0x40 PUSH1 0x0 KECCAK256 PUSH1 0xA DUP2 ADD PUSH1 0x40 MLOAD SWAP2 PUSH2 0x3C6 DUP4 PUSH2 0x23BB JUMP JUMPDEST PUSH2 0x3D2 PUSH1 0x3 DUP3 ADD PUSH2 0x23F7 JUMP JUMPDEST DUP4 MSTORE PUSH2 0x3F3 PUSH1 0xF PUSH2 0x3E5 PUSH1 0xE DUP5 ADD PUSH2 0x23F7 JUMP JUMPDEST SWAP3 PUSH1 0x20 DUP7 ADD SWAP4 DUP5 MSTORE ADD PUSH2 0x23F7 JUMP JUMPDEST SWAP1 PUSH1 0x40 DUP5 ADD SWAP2 DUP3 MSTORE DUP3 SLOAD PUSH2 0x406 DUP2 PUSH2 0x25F2 JUMP JUMPDEST SWAP4 PUSH2 0x414 PUSH1 0x40 MLOAD SWAP6 DUP7 PUSH2 0x23D6 JUMP JUMPDEST DUP2 DUP6 MSTORE PUSH1 0x20 DUP6 ADD SWAP1 PUSH1 0x0 MSTORE PUSH1 0x20 PUSH1 0x0 KECCAK256 PUSH1 0x0 SWAP2 JUMPDEST DUP4 DUP4 LT PUSH2 0x4ED JUMPI PUSH2 0x45F DUP9 DUP9 PUSH2 0x485 DUP10 PUSH2 0x472 DUP11 PUSH1 0x60 DUP7 ADD SWAP5 DUP6 MSTORE PUSH1 0x40 MLOAD SWAP7 DUP8 SWAP7 PUSH1 0x20 DUP9 MSTORE MLOAD PUSH1 0x80 PUSH1 0x20 DUP10 ADD MSTORE PUSH1 0xA0 DUP9 ADD SWAP1 PUSH2 0x24BE JUMP JUMPDEST SWAP1 MLOAD DUP7 DUP3 SUB PUSH1 0x1F NOT ADD PUSH1 0x40 DUP9 ADD MSTORE PUSH2 0x24BE JUMP JUMPDEST SWAP1 MLOAD DUP5 DUP3 SUB PUSH1 0x1F NOT ADD PUSH1 0x60 DUP7 ADD MSTORE PUSH2 0x24BE JUMP JUMPDEST SWAP1 MLOAD SWAP1 PUSH1 0x1F NOT DUP4 DUP3 SUB ADD PUSH1 0x80 DUP5 ADD MSTORE DUP2 MLOAD DUP1 DUP3 MSTORE PUSH1 0x20 DUP3 ADD SWAP2 PUSH1 0x20 DUP1 DUP4 PUSH1 0x5 SHL DUP4 ADD ADD SWAP5 ADD SWAP3 PUSH1 0x0 SWAP2 JUMPDEST DUP4 DUP4 LT PUSH2 0x4BC JUMPI DUP7 DUP7 SUB DUP8 RETURN JUMPDEST SWAP2 SWAP4 SWAP6 POP SWAP2 SWAP4 PUSH1 0x20 DUP1 PUSH2 0x4DB PUSH1 0x1 SWAP4 PUSH1 0x1F NOT DUP7 DUP3 SUB ADD DUP8 MSTORE DUP10 MLOAD PUSH2 0x24BE JUMP JUMPDEST SWAP8 ADD SWAP4 ADD SWAP4 ADD SWAP1 SWAP3 DUP7 SWAP6 SWAP5 SWAP3 SWAP4 PUSH2 0x4AF JUMP JUMPDEST PUSH1 0x1 PUSH1 0x20 DUP2 SWAP3 PUSH2 0x4FC DUP6 PUSH2 0x23F7 JUMP JUMPDEST DUP2 MSTORE ADD SWAP3 ADD SWAP3 ADD SWAP2 SWAP1 PUSH2 0x428 JUMP JUMPDEST PUSH2 0x140 CALLDATASIZE PUSH1 0x3 NOT ADD SLT PUSH2 0x100 JUMPI PUSH1 0x4 CALLDATALOAD PUSH1 0x1 PUSH1 0x1 PUSH1 0x40 SHL SUB DUP2 GT PUSH2 0x100 JUMPI PUSH2 0x536 SWAP1 CALLDATASIZE SWAP1 PUSH1 0x4 ADD PUSH2 0x2547 JUMP JUMPDEST PUSH1 0x24 CALLDATALOAD PUSH1 0x1 PUSH1 0x1 PUSH1 0x40 SHL SUB DUP2 GT PUSH2 0x100 JUMPI PUSH2 0x555 SWAP1 CALLDATASIZE SWAP1 PUSH1 0x4 ADD PUSH2 0x2547 JUMP JUMPDEST PUSH1 0x44 CALLDATALOAD PUSH1 0x1 PUSH1 0x1 PUSH1 0x40 SHL SUB DUP2 GT PUSH2 0x100 JUMPI PUSH2 0x574 SWAP1 CALLDATASIZE SWAP1 PUSH1 0x4 ADD PUSH2 0x2547 JUMP JUMPDEST PUSH1 0x84 CALLDATALOAD PUSH1 0x64 CALLDATALOAD PUSH1 0xA4 CALLDATALOAD PUSH1 0x1 PUSH1 0x1 PUSH1 0x40 SHL SUB DUP2 GT PUSH2 0x100 JUMPI PUSH2 0x599 SWAP1 CALLDATASIZE SWAP1 PUSH1 0x4 ADD PUSH2 0x2609 JUMP JUMPDEST SWAP2 PUSH1 0xC4 CALLDATALOAD SWAP6 PUSH1 0x1 PUSH1 0x1 PUSH1 0x40 SHL SUB DUP8 GT PUSH2 0x100 JUMPI CALLDATASIZE PUSH1 0x23 DUP9 ADD SLT ISZERO PUSH2 0x100 JUMPI DUP7 PUSH1 0x4 ADD CALLDATALOAD SWAP7 PUSH2 0x5C6 DUP9 PUSH2 0x25F2 JUMP JUMPDEST SWAP8 PUSH2 0x5D4 PUSH1 0x40 MLOAD SWAP10 DUP11 PUSH2 0x23D6 JUMP JUMPDEST DUP1 DUP10 MSTORE PUSH1 0x24 PUSH1 0x20 DUP11 ADD SWAP2 PUSH1 0x5 SHL DUP4 ADD ADD SWAP2 CALLDATASIZE DUP4 GT PUSH2 0x100 JUMPI PUSH1 0x24 ADD SWAP1 JUMPDEST DUP3 DUP3 LT PUSH2 0x1307 JUMPI POP POP POP PUSH1 0xE4 CALLDATALOAD PUSH1 0x1 PUSH1 0x1 PUSH1 0x40 SHL SUB DUP2 GT PUSH2 0x100 JUMPI PUSH2 0x61A SWAP1 CALLDATASIZE SWAP1 PUSH1 0x4 ADD PUSH2 0x2547 JUMP JUMPDEST PUSH2 0x104 CALLDATALOAD PUSH1 0x1 PUSH1 0x1 PUSH1 0x40 SHL SUB DUP2 GT PUSH2 0x100 JUMPI PUSH2 0x63A SWAP1 CALLDATASIZE SWAP1 PUSH1 0x4 ADD PUSH2 0x2547 JUMP JUMPDEST PUSH2 0x124 CALLDATALOAD PUSH1 0x1 PUSH1 0x1 PUSH1 0x40 SHL SUB DUP2 GT PUSH2 0x100 JUMPI PUSH2 0x65A SWAP1 CALLDATASIZE SWAP1 PUSH1 0x4 ADD PUSH2 0x2609 JUMP JUMPDEST SWAP2 DUP6 ISZERO PUSH2 0x12AC JUMPI DUP5 ISZERO ISZERO DUP1 PUSH2 0x12A0 JUMPI JUMPDEST ISZERO PUSH2 0x1240 JUMPI DUP7 MLOAD DUP11 MLOAD SUB PUSH2 0x11E7 JUMPI DUP7 MLOAD ISZERO PUSH2 0x118F JUMPI PUSH1 0x0 SLOAD SWAP5 PUSH2 0x68C DUP7 PUSH2 0x275E JUMP JUMPDEST PUSH1 0x0 SSTORE DUP6 PUSH1 0x0 MSTORE PUSH1 0x1 PUSH1 0x20 MSTORE PUSH1 0x40 PUSH1 0x0 KECCAK256 SWAP10 DUP7 DUP12 SSTORE PUSH1 0x1 DUP12 ADD PUSH1 0x1 DUP1 PUSH1 0xA0 SHL SUB CALLER AND PUSH12 0xFFFFFFFFFFFFFFFFFFFFFFFF PUSH1 0xA0 SHL DUP3 SLOAD AND OR SWAP1 SSTORE PUSH1 0x2 DUP12 ADD DUP7 MLOAD PUSH1 0x1 PUSH1 0x1 PUSH1 0x40 SHL SUB DUP2 GT PUSH2 0xB71 JUMPI PUSH2 0x6E2 DUP3 SLOAD PUSH2 0x234A JUMP JUMPDEST PUSH1 0x1F DUP2 GT PUSH2 0x115D JUMPI JUMPDEST POP PUSH1 0x20 PUSH1 0x1F DUP3 GT PUSH1 0x1 EQ PUSH2 0x10F7 JUMPI SWAP1 DUP1 PUSH2 0x71B SWAP3 PUSH1 0x0 SWAP2 PUSH2 0x10EC JUMPI JUMPDEST POP DUP2 PUSH1 0x1 SHL SWAP2 PUSH1 0x0 NOT SWAP1 PUSH1 0x3 SHL SHR NOT AND OR SWAP1 JUMP JUMPDEST SWAP1 SSTORE JUMPDEST DUP1 MLOAD PUSH1 0x3 DUP13 ADD SWAP2 PUSH1 0x1 PUSH1 0x1 PUSH1 0x40 SHL SUB DUP3 GT PUSH2 0xB71 JUMPI PUSH2 0x73D DUP4 SLOAD PUSH2 0x234A JUMP JUMPDEST PUSH1 0x1F DUP2 GT PUSH2 0x10BA JUMPI JUMPDEST POP PUSH1 0x20 SWAP1 PUSH1 0x1F DUP4 GT PUSH1 0x1 EQ PUSH2 0x1053 JUMPI PUSH2 0x778 SWAP3 SWAP2 PUSH1 0x0 SWAP2 DUP4 PUSH2 0x1048 JUMPI JUMPDEST POP POP DUP2 PUSH1 0x1 SHL SWAP2 PUSH1 0x0 NOT SWAP1 PUSH1 0x3 SHL SHR NOT AND OR SWAP1 JUMP JUMPDEST SWAP1 SSTORE JUMPDEST PUSH1 0x4 DUP11 ADD DUP10 MLOAD PUSH1 0x1 PUSH1 0x1 PUSH1 0x40 SHL SUB DUP2 GT PUSH2 0xB71 JUMPI PUSH2 0x799 DUP3 SLOAD PUSH2 0x234A JUMP JUMPDEST PUSH1 0x1F DUP2 GT PUSH2 0x1016 JUMPI JUMPDEST POP PUSH1 0x20 PUSH1 0x1F DUP3 GT PUSH1 0x1 EQ PUSH2 0xFB0 JUMPI SWAP1 DUP1 PUSH2 0x7D1 SWAP3 PUSH1 0x0 SWAP2 PUSH2 0xFA5 JUMPI POP DUP2 PUSH1 0x1 SHL SWAP2 PUSH1 0x0 NOT SWAP1 PUSH1 0x3 SHL SHR NOT AND OR SWAP1 JUMP JUMPDEST SWAP1 SSTORE JUMPDEST PUSH1 0x5 DUP11 ADD DUP8 SWAP1 SSTORE PUSH1 0x7 DUP11 ADD SSTORE TIMESTAMP PUSH1 0x8 DUP11 ADD SSTORE PUSH1 0x9 DUP10 ADD DUP1 SLOAD PUSH1 0xFF NOT AND PUSH1 0x1 OR SWAP1 SSTORE DUP1 MLOAD PUSH1 0xE DUP11 ADD SWAP2 PUSH1 0x1 PUSH1 0x1 PUSH1 0x40 SHL SUB DUP3 GT PUSH2 0xB71 JUMPI PUSH2 0x814 DUP4 SLOAD PUSH2 0x234A JUMP JUMPDEST PUSH1 0x1F DUP2 GT PUSH2 0xF73 JUMPI JUMPDEST POP PUSH1 0x20 SWAP1 PUSH1 0x1F DUP4 GT PUSH1 0x1 EQ PUSH2 0xF0C JUMPI PUSH2 0x84E SWAP3 SWAP2 PUSH1 0x0 SWAP2 DUP4 PUSH2 0xF01 JUMPI POP POP DUP2 PUSH1 0x1 SHL SWAP2 PUSH1 0x0 NOT SWAP1 PUSH1 0x3 SHL SHR NOT AND OR SWAP1 JUMP JUMPDEST SWAP1 SSTORE JUMPDEST DUP1 MLOAD PUSH1 0xF DUP10 ADD SWAP2 PUSH1 0x1 PUSH1 0x1 PUSH1 0x40 SHL SUB DUP3 GT PUSH2 0xB71 JUMPI PUSH2 0x870 DUP4 SLOAD PUSH2 0x234A JUMP JUMPDEST PUSH1 0x1F DUP2 GT PUSH2 0xECF JUMPI JUMPDEST POP PUSH1 0x20 SWAP1 PUSH1 0x1F DUP4 GT PUSH1 0x1 EQ PUSH2 0xE68 JUMPI PUSH2 0x8AA SWAP3 SWAP2 PUSH1 0x0 SWAP2 DUP4 PUSH2 0xE5D JUMPI POP POP DUP2 PUSH1 0x1 SHL SWAP2 PUSH1 0x0 NOT SWAP1 PUSH1 0x3 SHL SHR NOT AND OR SWAP1 JUMP JUMPDEST SWAP1 SSTORE JUMPDEST DUP1 MLOAD PUSH1 0xA DUP9 ADD SWAP2 PUSH1 0x1 PUSH1 0x40 SHL DUP3 GT PUSH2 0xB71 JUMPI DUP3 SLOAD DUP3 DUP5 SSTORE DUP1 DUP4 LT PUSH2 0xDDF JUMPI JUMPDEST POP PUSH1 0x0 SWAP3 DUP4 MSTORE PUSH1 0x20 DUP1 DUP5 KECCAK256 SWAP9 SWAP10 SWAP9 SWAP4 SWAP2 ADD JUMPDEST DUP3 DUP3 LT PUSH2 0xCCC JUMPI POP POP POP POP PUSH1 0xC PUSH1 0x0 SWAP6 ADD SWAP5 JUMPDEST DUP5 MLOAD DUP2 LT ISZERO PUSH2 0xC34 JUMPI PUSH2 0x904 DUP2 DUP7 PUSH2 0x276D JUMP JUMPDEST MLOAD PUSH2 0x90F DUP3 DUP11 PUSH2 0x276D JUMP JUMPDEST MLOAD PUSH1 0x40 MLOAD SWAP2 PUSH1 0xE0 DUP4 ADD DUP4 DUP2 LT PUSH1 0x1 PUSH1 0x1 PUSH1 0x40 SHL SUB DUP3 GT OR PUSH2 0xB71 JUMPI PUSH1 0x40 MSTORE DUP3 MSTORE PUSH1 0x20 DUP3 ADD SWAP1 DUP2 MSTORE PUSH1 0x40 DUP3 ADD PUSH1 0x0 DUP2 MSTORE PUSH1 0x60 DUP4 ADD SWAP1 PUSH1 0x0 DUP3 MSTORE PUSH1 0x20 PUSH1 0x40 MLOAD SWAP2 PUSH2 0x957 DUP3 DUP5 PUSH2 0x23D6 JUMP JUMPDEST PUSH1 0x0 DUP4 MSTORE PUSH1 0x80 DUP7 ADD SWAP3 DUP4 MSTORE PUSH1 0xA0 DUP7 ADD SWAP4 PUSH1 0x0 DUP6 MSTORE PUSH1 0xC0 DUP8 ADD SWAP6 PUSH1 0x0 DUP8 MSTORE DUP14 SLOAD PUSH1 0x1 PUSH1 0x40 SHL DUP2 LT ISZERO PUSH2 0xB71 JUMPI DUP1 DUP16 PUSH1 0x1 PUSH2 0x992 SWAP4 ADD DUP2 SSTORE PUSH2 0x2735 JUMP JUMPDEST SWAP9 SWAP1 SWAP9 PUSH2 0xC1E JUMPI MLOAD DUP1 MLOAD SWAP1 PUSH1 0x1 PUSH1 0x1 PUSH1 0x40 SHL SUB DUP3 GT PUSH2 0xB71 JUMPI PUSH2 0x9B5 DUP11 SLOAD PUSH2 0x234A JUMP JUMPDEST PUSH1 0x1F DUP2 GT PUSH2 0xBEE JUMPI JUMPDEST POP DUP6 SWAP1 PUSH1 0x1F DUP4 GT PUSH1 0x1 EQ PUSH2 0xB87 JUMPI PUSH2 0x9EE SWAP3 SWAP2 PUSH1 0x0 SWAP2 DUP4 PUSH2 0xAB7 JUMPI POP POP DUP2 PUSH1 0x1 SHL SWAP2 PUSH1 0x0 NOT SWAP1 PUSH1 0x3 SHL SHR NOT AND OR SWAP1 JUMP JUMPDEST DUP9 SSTORE JUMPDEST MLOAD PUSH1 0x1 DUP9 ADD SSTORE PUSH2 0xA14 PUSH1 0x2 DUP9 ADD SWAP3 MLOAD ISZERO ISZERO DUP4 SWAP1 PUSH1 0xFF DUP1 NOT DUP4 SLOAD AND SWAP2 ISZERO ISZERO AND OR SWAP1 SSTORE JUMP JUMPDEST MLOAD DUP2 SLOAD PUSH2 0xFF00 NOT AND SWAP1 ISZERO ISZERO PUSH1 0x8 SHL PUSH2 0xFF00 AND OR SWAP1 SSTORE SWAP1 MLOAD DUP1 MLOAD PUSH1 0x3 DUP7 ADD SWAP3 SWAP1 SWAP2 PUSH1 0x1 PUSH1 0x1 PUSH1 0x40 SHL SUB DUP4 GT PUSH2 0xB71 JUMPI PUSH2 0xA4C DUP5 SLOAD PUSH2 0x234A JUMP JUMPDEST PUSH1 0x1F DUP2 GT PUSH2 0xB36 JUMPI JUMPDEST POP DUP2 PUSH1 0x1F DUP5 GT PUSH1 0x1 EQ PUSH2 0xAC2 JUMPI POP SWAP3 PUSH2 0xA92 DUP4 PUSH2 0xAB1 SWAP8 SWAP5 PUSH1 0x1 SWAP11 SWAP10 SWAP8 SWAP5 PUSH1 0x5 SWAP8 PUSH1 0x0 SWAP3 PUSH2 0xAB7 JUMPI POP POP DUP2 PUSH1 0x1 SHL SWAP2 PUSH1 0x0 NOT SWAP1 PUSH1 0x3 SHL SHR NOT AND OR SWAP1 JUMP JUMPDEST SWAP1 SSTORE JUMPDEST MLOAD PUSH1 0x4 DUP5 ADD SSTORE MLOAD ISZERO ISZERO SWAP2 ADD SWAP1 PUSH1 0xFF DUP1 NOT DUP4 SLOAD AND SWAP2 ISZERO ISZERO AND OR SWAP1 SSTORE JUMP JUMPDEST ADD PUSH2 0x8F1 JUMP JUMPDEST ADD MLOAD SWAP1 POP CODESIZE DUP1 PUSH2 0x763 JUMP JUMPDEST SWAP2 SWAP1 PUSH1 0x1F NOT DUP5 AND DUP6 PUSH1 0x0 MSTORE DUP4 PUSH1 0x0 KECCAK256 SWAP4 PUSH1 0x0 SWAP1 JUMPDEST DUP3 DUP3 LT PUSH2 0xB1E JUMPI POP POP SWAP4 PUSH1 0x1 SWAP10 SWAP9 SWAP7 SWAP4 PUSH1 0x5 SWAP7 SWAP4 DUP12 SWAP4 DUP4 PUSH2 0xAB1 SWAP12 SWAP9 LT PUSH2 0xB05 JUMPI JUMPDEST POP POP POP DUP2 SHL ADD SWAP1 SSTORE PUSH2 0xA95 JUMP JUMPDEST ADD MLOAD PUSH1 0x0 NOT PUSH1 0xF8 DUP5 PUSH1 0x3 SHL AND SHR NOT AND SWAP1 SSTORE CODESIZE DUP1 DUP1 PUSH2 0xAF8 JUMP JUMPDEST DUP1 PUSH1 0x1 DUP7 SWAP8 DUP3 SWAP5 SWAP8 DUP8 ADD MLOAD DUP2 SSTORE ADD SWAP7 ADD SWAP5 ADD SWAP1 PUSH2 0xAD6 JUMP JUMPDEST PUSH2 0xB61 SWAP1 DUP6 PUSH1 0x0 MSTORE DUP4 PUSH1 0x0 KECCAK256 PUSH1 0x1F DUP7 ADD PUSH1 0x5 SHR DUP2 ADD SWAP2 DUP6 DUP8 LT PUSH2 0xB67 JUMPI JUMPDEST PUSH1 0x1F ADD PUSH1 0x5 SHR ADD SWAP1 PUSH2 0x280E JUMP JUMPDEST DUP16 PUSH2 0xA55 JUMP JUMPDEST SWAP1 SWAP2 POP DUP2 SWAP1 PUSH2 0xB54 JUMP JUMPDEST PUSH4 0x4E487B71 PUSH1 0xE0 SHL PUSH1 0x0 MSTORE PUSH1 0x41 PUSH1 0x4 MSTORE PUSH1 0x24 PUSH1 0x0 REVERT JUMPDEST SWAP1 PUSH1 0x1F NOT DUP4 AND SWAP2 DUP12 PUSH1 0x0 MSTORE DUP8 PUSH1 0x0 KECCAK256 SWAP3 PUSH1 0x0 JUMPDEST DUP10 DUP3 DUP3 LT PUSH2 0xBD8 JUMPI POP POP SWAP1 DUP5 PUSH1 0x1 SWAP6 SWAP5 SWAP4 SWAP3 LT PUSH2 0xBBF JUMPI JUMPDEST POP POP POP DUP2 SHL ADD DUP9 SSTORE PUSH2 0x9F1 JUMP JUMPDEST ADD MLOAD PUSH1 0x0 NOT PUSH1 0xF8 DUP5 PUSH1 0x3 SHL AND SHR NOT AND SWAP1 SSTORE CODESIZE DUP1 DUP1 PUSH2 0xBB2 JUMP JUMPDEST PUSH1 0x1 DUP6 SWAP7 DUP3 SWAP4 SWAP7 DUP7 ADD MLOAD DUP2 SSTORE ADD SWAP6 ADD SWAP4 ADD PUSH2 0xB9A JUMP JUMPDEST PUSH2 0xC18 SWAP1 DUP12 PUSH1 0x0 MSTORE DUP8 PUSH1 0x0 KECCAK256 PUSH1 0x1F DUP6 ADD PUSH1 0x5 SHR DUP2 ADD SWAP2 DUP10 DUP7 LT PUSH2 0xB67 JUMPI PUSH1 0x1F ADD PUSH1 0x5 SHR ADD SWAP1 PUSH2 0x280E JUMP JUMPDEST CODESIZE PUSH2 0x9BE JUMP JUMPDEST PUSH4 0x4E487B71 PUSH1 0xE0 SHL PUSH1 0x0 MSTORE PUSH1 0x0 PUSH1 0x4 MSTORE PUSH1 0x24 PUSH1 0x0 REVERT JUMPDEST POP PUSH1 0x40 MLOAD DUP7 MLOAD PUSH1 0x20 SWAP1 DUP3 SWAP1 PUSH2 0xC4C DUP2 DUP4 DUP13 DUP7 ADD PUSH2 0x249B JUMP JUMPDEST DUP2 ADD PUSH1 0x4 DUP2 MSTORE SUB ADD SWAP1 KECCAK256 SWAP3 DUP4 SLOAD SWAP4 PUSH1 0x1 PUSH1 0x40 SHL DUP6 LT ISZERO PUSH2 0xB71 JUMPI PUSH2 0xCC1 DUP5 SWAP3 PUSH2 0xC9E DUP8 PUSH32 0x825FB10F7650ED27414D6F86ACDF7D5946927D9B25001F045F1A2435DEEC02FE SWAP5 PUSH1 0x1 PUSH1 0x20 SWAP11 ADD DUP2 SSTORE PUSH2 0x25DA JUMP JUMPDEST DUP2 SLOAD SWAP1 PUSH1 0x3 SHL SWAP1 DUP7 DUP3 SHL SWAP2 PUSH1 0x0 NOT SWAP1 SHL NOT AND OR SWAP1 SSTORE PUSH1 0x40 MLOAD SWAP2 DUP3 SWAP2 CALLER SWAP7 DUP4 PUSH2 0x24F9 JUMP JUMPDEST SUB SWAP1 LOG3 PUSH1 0x40 MLOAD SWAP1 DUP2 MSTORE RETURN JUMPDEST DUP1 SWAP10 SWAP9 SWAP10 MLOAD DUP1 MLOAD SWAP1 PUSH1 0x1 PUSH1 0x1 PUSH1 0x40 SHL SUB DUP3 GT PUSH2 0xB71 JUMPI PUSH2 0xCEC DUP7 SLOAD PUSH2 0x234A JUMP JUMPDEST PUSH1 0x1F DUP2 GT PUSH2 0xDAD JUMPI JUMPDEST POP PUSH1 0x20 SWAP1 PUSH1 0x1F DUP4 GT PUSH1 0x1 EQ PUSH2 0xD40 JUMPI SWAP3 PUSH2 0xD2E DUP4 PUSH1 0x1 SWAP6 SWAP5 PUSH1 0x20 SWAP5 DUP8 SWAP7 PUSH1 0x0 SWAP3 PUSH2 0xAB7 JUMPI POP POP DUP2 PUSH1 0x1 SHL SWAP2 PUSH1 0x0 NOT SWAP1 PUSH1 0x3 SHL SHR NOT AND OR SWAP1 JUMP JUMPDEST DUP8 SSTORE JUMPDEST ADD SWAP5 ADD SWAP2 ADD SWAP1 SWAP3 SWAP9 SWAP8 SWAP9 PUSH2 0x8DE JUMP JUMPDEST SWAP1 PUSH1 0x1F NOT DUP4 AND SWAP2 DUP8 PUSH1 0x0 MSTORE DUP2 PUSH1 0x0 KECCAK256 SWAP3 PUSH1 0x0 JUMPDEST DUP2 DUP2 LT PUSH2 0xD95 JUMPI POP SWAP4 PUSH1 0x20 SWAP4 PUSH1 0x1 SWAP7 SWAP4 DUP8 SWAP7 SWAP4 DUP4 DUP9 SWAP6 LT PUSH2 0xD7C JUMPI JUMPDEST POP POP POP DUP2 SHL ADD DUP8 SSTORE PUSH2 0xD31 JUMP JUMPDEST ADD MLOAD PUSH1 0x0 NOT PUSH1 0xF8 DUP5 PUSH1 0x3 SHL AND SHR NOT AND SWAP1 SSTORE CODESIZE DUP1 DUP1 PUSH2 0xD6F JUMP JUMPDEST SWAP3 SWAP4 PUSH1 0x20 PUSH1 0x1 DUP2 SWAP3 DUP8 DUP7 ADD MLOAD DUP2 SSTORE ADD SWAP6 ADD SWAP4 ADD PUSH2 0xD53 JUMP JUMPDEST PUSH2 0xDD9 SWAP1 DUP8 PUSH1 0x0 MSTORE PUSH1 0x20 PUSH1 0x0 KECCAK256 PUSH1 0x1F DUP6 ADD PUSH1 0x5 SHR DUP2 ADD SWAP2 PUSH1 0x20 DUP7 LT PUSH2 0xB67 JUMPI PUSH1 0x1F ADD PUSH1 0x5 SHR ADD SWAP1 PUSH2 0x280E JUMP JUMPDEST DUP14 PUSH2 0xCF5 JUMP JUMPDEST DUP4 PUSH1 0x0 MSTORE DUP3 PUSH1 0x20 PUSH1 0x0 KECCAK256 SWAP2 DUP3 ADD SWAP2 ADD JUMPDEST DUP2 DUP2 LT PUSH2 0xDFC JUMPI POP PUSH2 0x8CC JUMP JUMPDEST DUP1 PUSH2 0xE09 PUSH1 0x1 SWAP3 SLOAD PUSH2 0x234A JUMP JUMPDEST DUP1 PUSH2 0xE16 JUMPI JUMPDEST POP ADD PUSH2 0xDEF JUMP JUMPDEST PUSH1 0x1F DUP2 GT DUP4 EQ PUSH2 0xE2C JUMPI POP PUSH1 0x0 DUP2 SSTORE JUMPDEST DUP14 PUSH2 0xE0F JUMP JUMPDEST PUSH2 0xE4A SWAP1 DUP3 PUSH1 0x0 MSTORE DUP4 PUSH1 0x1F PUSH1 0x20 PUSH1 0x0 KECCAK256 SWAP3 ADD PUSH1 0x5 SHR DUP3 ADD SWAP2 ADD PUSH2 0x280E JUMP JUMPDEST DUP1 PUSH1 0x0 MSTORE PUSH1 0x0 PUSH1 0x20 DUP2 KECCAK256 DUP2 DUP4 SSTORE SSTORE PUSH2 0xE26 JUMP JUMPDEST ADD MLOAD SWAP1 POP DUP13 DUP1 PUSH2 0x763 JUMP JUMPDEST SWAP1 PUSH1 0x1F NOT DUP4 AND SWAP2 DUP5 PUSH1 0x0 MSTORE DUP2 PUSH1 0x0 KECCAK256 SWAP3 PUSH1 0x0 JUMPDEST DUP2 DUP2 LT PUSH2 0xEB7 JUMPI POP SWAP1 DUP5 PUSH1 0x1 SWAP6 SWAP5 SWAP4 SWAP3 LT PUSH2 0xE9E JUMPI JUMPDEST POP POP POP DUP2 SHL ADD SWAP1 SSTORE PUSH2 0x8AD JUMP JUMPDEST ADD MLOAD PUSH1 0x0 NOT PUSH1 0xF8 DUP5 PUSH1 0x3 SHL AND SHR NOT AND SWAP1 SSTORE DUP12 DUP1 DUP1 PUSH2 0xE91 JUMP JUMPDEST SWAP3 SWAP4 PUSH1 0x20 PUSH1 0x1 DUP2 SWAP3 DUP8 DUP7 ADD MLOAD DUP2 SSTORE ADD SWAP6 ADD SWAP4 ADD PUSH2 0xE7B JUMP JUMPDEST PUSH2 0xEFB SWAP1 DUP5 PUSH1 0x0 MSTORE PUSH1 0x20 PUSH1 0x0 KECCAK256 PUSH1 0x1F DUP6 ADD PUSH1 0x5 SHR DUP2 ADD SWAP2 PUSH1 0x20 DUP7 LT PUSH2 0xB67 JUMPI PUSH1 0x1F ADD PUSH1 0x5 SHR ADD SWAP1 PUSH2 0x280E JUMP JUMPDEST DUP12 PUSH2 0x879 JUMP JUMPDEST ADD MLOAD SWAP1 POP DUP14 DUP1 PUSH2 0x763 JUMP JUMPDEST SWAP1 PUSH1 0x1F NOT DUP4 AND SWAP2 DUP5 PUSH1 0x0 MSTORE DUP2 PUSH1 0x0 KECCAK256 SWAP3 PUSH1 0x0 JUMPDEST DUP2 DUP2 LT PUSH2 0xF5B JUMPI POP SWAP1 DUP5 PUSH1 0x1 SWAP6 SWAP5 SWAP4 SWAP3 LT PUSH2 0xF42 JUMPI JUMPDEST POP POP POP DUP2 SHL ADD SWAP1 SSTORE PUSH2 0x851 JUMP JUMPDEST ADD MLOAD PUSH1 0x0 NOT PUSH1 0xF8 DUP5 PUSH1 0x3 SHL AND SHR NOT AND SWAP1 SSTORE DUP13 DUP1 DUP1 PUSH2 0xF35 JUMP JUMPDEST SWAP3 SWAP4 PUSH1 0x20 PUSH1 0x1 DUP2 SWAP3 DUP8 DUP7 ADD MLOAD DUP2 SSTORE ADD SWAP6 ADD SWAP4 ADD PUSH2 0xF1F JUMP JUMPDEST PUSH2 0xF9F SWAP1 DUP5 PUSH1 0x0 MSTORE PUSH1 0x20 PUSH1 0x0 KECCAK256 PUSH1 0x1F DUP6 ADD PUSH1 0x5 SHR DUP2 ADD SWAP2 PUSH1 0x20 DUP7 LT PUSH2 0xB67 JUMPI PUSH1 0x1F ADD PUSH1 0x5 SHR ADD SWAP1 PUSH2 0x280E JUMP JUMPDEST DUP13 PUSH2 0x81D JUMP JUMPDEST SWAP1 POP DUP13 ADD MLOAD DUP16 PUSH2 0x707 JUMP JUMPDEST PUSH1 0x0 DUP4 DUP2 MSTORE DUP2 DUP2 KECCAK256 SWAP2 SWAP1 PUSH1 0x1F NOT DUP5 AND SWAP1 DUP15 JUMPDEST DUP3 DUP3 LT PUSH2 0xFFD JUMPI POP POP SWAP1 DUP4 PUSH1 0x1 SWAP5 SWAP4 SWAP3 LT PUSH2 0xFE4 JUMPI JUMPDEST POP POP DUP2 SHL ADD SWAP1 SSTORE PUSH2 0x7D4 JUMP JUMPDEST DUP14 ADD MLOAD PUSH1 0x0 NOT PUSH1 0xF8 DUP5 PUSH1 0x3 SHL AND SHR NOT AND SWAP1 SSTORE DUP15 DUP1 PUSH2 0xFD8 JUMP JUMPDEST PUSH1 0x1 DUP5 SWAP6 PUSH1 0x20 SWAP4 SWAP6 DUP5 SWAP4 ADD MLOAD DUP2 SSTORE ADD SWAP5 ADD SWAP3 ADD DUP15 PUSH2 0xFC2 JUMP JUMPDEST PUSH2 0x1042 SWAP1 DUP4 PUSH1 0x0 MSTORE PUSH1 0x20 PUSH1 0x0 KECCAK256 PUSH1 0x1F DUP5 ADD PUSH1 0x5 SHR DUP2 ADD SWAP2 PUSH1 0x20 DUP6 LT PUSH2 0xB67 JUMPI PUSH1 0x1F ADD PUSH1 0x5 SHR ADD SWAP1 PUSH2 0x280E JUMP JUMPDEST DUP14 PUSH2 0x7A2 JUMP JUMPDEST ADD MLOAD SWAP1 POP DUP16 DUP1 PUSH2 0x763 JUMP JUMPDEST SWAP1 PUSH1 0x1F NOT DUP4 AND SWAP2 DUP5 PUSH1 0x0 MSTORE DUP2 PUSH1 0x0 KECCAK256 SWAP3 PUSH1 0x0 JUMPDEST DUP2 DUP2 LT PUSH2 0x10A2 JUMPI POP SWAP1 DUP5 PUSH1 0x1 SWAP6 SWAP5 SWAP4 SWAP3 LT PUSH2 0x1089 JUMPI JUMPDEST POP POP POP DUP2 SHL ADD SWAP1 SSTORE PUSH2 0x77B JUMP JUMPDEST ADD MLOAD PUSH1 0x0 NOT PUSH1 0xF8 DUP5 PUSH1 0x3 SHL AND SHR NOT AND SWAP1 SSTORE DUP15 DUP1 DUP1 PUSH2 0x107C JUMP JUMPDEST SWAP3 SWAP4 PUSH1 0x20 PUSH1 0x1 DUP2 SWAP3 DUP8 DUP7 ADD MLOAD DUP2 SSTORE ADD SWAP6 ADD SWAP4 ADD PUSH2 0x1066 JUMP JUMPDEST PUSH2 0x10E6 SWAP1 DUP5 PUSH1 0x0 MSTORE PUSH1 0x20 PUSH1 0x0 KECCAK256 PUSH1 0x1F DUP6 ADD PUSH1 0x5 SHR DUP2 ADD SWAP2 PUSH1 0x20 DUP7 LT PUSH2 0xB67 JUMPI PUSH1 0x1F ADD PUSH1 0x5 SHR ADD SWAP1 PUSH2 0x280E JUMP JUMPDEST DUP15 PUSH2 0x746 JUMP JUMPDEST SWAP1 POP DUP10 ADD MLOAD CODESIZE PUSH2 0x707 JUMP JUMPDEST PUSH1 0x1F NOT DUP3 AND SWAP1 DUP4 PUSH1 0x0 MSTORE DUP1 PUSH1 0x0 KECCAK256 SWAP2 PUSH1 0x0 JUMPDEST DUP12 DUP3 DUP3 LT PUSH2 0x1145 JUMPI POP POP SWAP1 DUP4 PUSH1 0x1 SWAP5 SWAP4 SWAP3 LT PUSH2 0x112C JUMPI JUMPDEST POP POP DUP2 SHL ADD SWAP1 SSTORE PUSH2 0x71E JUMP JUMPDEST DUP11 ADD MLOAD PUSH1 0x0 NOT PUSH1 0xF8 DUP5 PUSH1 0x3 SHL AND SHR NOT AND SWAP1 SSTORE DUP16 DUP1 PUSH2 0x1120 JUMP JUMPDEST PUSH1 0x1 DUP5 SWAP6 PUSH1 0x20 SWAP4 SWAP6 DUP5 SWAP4 ADD MLOAD DUP2 SSTORE ADD SWAP5 ADD SWAP3 ADD PUSH2 0x1109 JUMP JUMPDEST PUSH2 0x1189 SWAP1 DUP4 PUSH1 0x0 MSTORE PUSH1 0x20 PUSH1 0x0 KECCAK256 PUSH1 0x1F DUP5 ADD PUSH1 0x5 SHR DUP2 ADD SWAP2 PUSH1 0x20 DUP6 LT PUSH2 0xB67 JUMPI PUSH1 0x1F ADD PUSH1 0x5 SHR ADD SWAP1 PUSH2 0x280E JUMP JUMPDEST DUP15 PUSH2 0x6EB JUMP JUMPDEST PUSH1 0x40 MLOAD PUSH3 0x461BCD PUSH1 0xE5 SHL DUP2 MSTORE PUSH1 0x20 PUSH1 0x4 DUP3 ADD MSTORE PUSH1 0x2A PUSH1 0x24 DUP3 ADD MSTORE PUSH32 0x476F616C5A696C6C613A204174206C65617374206F6E65206D696C6573746F6E PUSH1 0x44 DUP3 ADD MSTORE PUSH10 0x19481C995C5D5A5C9959 PUSH1 0xB2 SHL PUSH1 0x64 DUP3 ADD MSTORE PUSH1 0x84 SWAP1 REVERT JUMPDEST PUSH1 0x40 MLOAD PUSH3 0x461BCD PUSH1 0xE5 SHL DUP2 MSTORE PUSH1 0x20 PUSH1 0x4 DUP3 ADD MSTORE PUSH1 0x2B PUSH1 0x24 DUP3 ADD MSTORE PUSH32 0x476F616C5A696C6C613A204D696C6573746F6E6520617272617973206C656E67 PUSH1 0x44 DUP3 ADD MSTORE PUSH11 0xE8D040DAD2E6DAC2E8C6D PUSH1 0xAB SHL PUSH1 0x64 DUP3 ADD MSTORE PUSH1 0x84 SWAP1 REVERT JUMPDEST PUSH1 0x40 MLOAD PUSH3 0x461BCD PUSH1 0xE5 SHL DUP2 MSTORE PUSH1 0x20 PUSH1 0x4 DUP3 ADD MSTORE PUSH1 0x32 PUSH1 0x24 DUP3 ADD MSTORE PUSH32 0x476F616C5A696C6C613A204475726174696F6E206D7573742062652062657477 PUSH1 0x44 DUP3 ADD MSTORE PUSH18 0x65656E203120616E64203336352064617973 PUSH1 0x70 SHL PUSH1 0x64 DUP3 ADD MSTORE PUSH1 0x84 SWAP1 REVERT JUMPDEST POP PUSH2 0x16D DUP6 GT ISZERO PUSH2 0x66A JUMP JUMPDEST PUSH1 0x40 MLOAD PUSH3 0x461BCD PUSH1 0xE5 SHL DUP2 MSTORE PUSH1 0x20 PUSH1 0x4 DUP3 ADD MSTORE PUSH1 0x2D PUSH1 0x24 DUP3 ADD MSTORE PUSH32 0x476F616C5A696C6C613A20476F616C20616D6F756E74206D7573742062652067 PUSH1 0x44 DUP3 ADD MSTORE PUSH13 0x726561746572207468616E203 PUSH1 0x9C SHL PUSH1 0x64 DUP3 ADD MSTORE PUSH1 0x84 SWAP1 REVERT JUMPDEST DUP2 CALLDATALOAD DUP2 MSTORE PUSH1 0x20 SWAP2 DUP3 ADD SWAP2 ADD PUSH2 0x5F1 JUMP JUMPDEST CALLVALUE PUSH2 0x100 JUMPI PUSH1 0x40 CALLDATASIZE PUSH1 0x3 NOT ADD SLT PUSH2 0x100 JUMPI PUSH1 0x4 CALLDATALOAD PUSH1 0x1 PUSH1 0x1 PUSH1 0x40 SHL SUB DUP2 GT PUSH2 0x100 JUMPI PUSH2 0x1347 SWAP1 CALLDATASIZE SWAP1 PUSH1 0x4 ADD PUSH2 0x2547 JUMP JUMPDEST PUSH2 0x1363 PUSH1 0x20 PUSH1 0x24 CALLDATALOAD SWAP3 DUP2 PUSH1 0x40 MLOAD SWAP4 DUP3 DUP6 DUP1 SWAP5 MLOAD SWAP4 DUP5 SWAP3 ADD PUSH2 0x249B JUMP JUMPDEST DUP2 ADD PUSH1 0x4 DUP2 MSTORE SUB ADD SWAP1 KECCAK256 DUP1 SLOAD DUP3 LT ISZERO PUSH2 0x100 JUMPI PUSH1 0x20 SWAP2 PUSH2 0x1382 SWAP2 PUSH2 0x25DA JUMP JUMPDEST SWAP1 SLOAD SWAP1 PUSH1 0x3 SHL SHR PUSH1 0x40 MLOAD SWAP1 DUP2 MSTORE RETURN JUMPDEST CALLVALUE PUSH2 0x100 JUMPI PUSH1 0x20 CALLDATASIZE PUSH1 0x3 NOT ADD SLT PUSH2 0x100 JUMPI PUSH1 0x4 CALLDATALOAD PUSH1 0x0 PUSH2 0x100 PUSH1 0x40 MLOAD PUSH2 0x13B6 DUP2 PUSH2 0x239F JUMP JUMPDEST DUP3 DUP2 MSTORE DUP3 PUSH1 0x20 DUP3 ADD MSTORE PUSH1 0x60 PUSH1 0x40 DUP3 ADD MSTORE PUSH1 0x60 DUP1 DUP3 ADD MSTORE DUP3 PUSH1 0x80 DUP3 ADD MSTORE DUP3 PUSH1 0xA0 DUP3 ADD MSTORE DUP3 PUSH1 0xC0 DUP3 ADD MSTORE DUP3 PUSH1 0xE0 DUP3 ADD MSTORE ADD MSTORE PUSH2 0x13F3 PUSH1 0x0 SLOAD DUP3 LT PUSH2 0x2687 JUMP JUMPDEST PUSH1 0x0 MSTORE PUSH1 0x1 PUSH1 0x20 MSTORE PUSH1 0x40 PUSH1 0x0 KECCAK256 DUP1 SLOAD PUSH1 0x1 DUP1 PUSH1 0xA0 SHL SUB PUSH1 0x1 DUP4 ADD SLOAD AND SWAP2 PUSH1 0x5 DUP2 ADD SLOAD SWAP1 PUSH1 0x6 DUP2 ADD SLOAD PUSH1 0xFF PUSH1 0x9 DUP4 ADD SLOAD AND PUSH1 0x8 DUP4 ADD SLOAD SWAP2 PUSH2 0x14DE PUSH1 0x7 DUP6 ADD SLOAD SWAP5 PUSH1 0x40 MLOAD SWAP8 PUSH2 0x143F DUP10 PUSH2 0x239F JUMP JUMPDEST DUP9 MSTORE PUSH1 0x20 DUP9 ADD SWAP9 DUP10 MSTORE PUSH2 0x14CB PUSH2 0x146A PUSH1 0x4 PUSH2 0x145C PUSH1 0x2 DUP6 ADD PUSH2 0x23F7 JUMP JUMPDEST SWAP4 PUSH1 0x40 DUP13 ADD SWAP5 DUP6 MSTORE ADD PUSH2 0x23F7 JUMP JUMPDEST SWAP2 PUSH1 0x60 DUP11 ADD SWAP3 DUP4 MSTORE PUSH1 0x80 DUP11 ADD SWAP9 DUP10 MSTORE PUSH1 0xA0 DUP11 ADD SWAP5 DUP6 MSTORE PUSH1 0xC0 DUP11 ADD SWAP6 ISZERO ISZERO DUP7 MSTORE PUSH1 0xE0 DUP11 ADD SWAP7 DUP8 MSTORE PUSH2 0x100 DUP11 ADD SWAP8 DUP9 MSTORE PUSH1 0x40 MLOAD SWAP11 DUP12 SWAP11 PUSH1 0x20 DUP13 MSTORE MLOAD PUSH1 0x20 DUP13 ADD MSTORE PUSH1 0x1 DUP1 PUSH1 0xA0 SHL SUB SWAP1 MLOAD AND PUSH1 0x40 DUP12 ADD MSTORE MLOAD PUSH2 0x120 PUSH1 0x60 DUP12 ADD MSTORE PUSH2 0x140 DUP11 ADD SWAP1 PUSH2 0x24BE JUMP JUMPDEST SWAP1 MLOAD DUP9 DUP3 SUB PUSH1 0x1F NOT ADD PUSH1 0x80 DUP11 ADD MSTORE PUSH2 0x24BE JUMP JUMPDEST SWAP5 MLOAD PUSH1 0xA0 DUP8 ADD MSTORE MLOAD PUSH1 0xC0 DUP7 ADD MSTORE MLOAD ISZERO ISZERO PUSH1 0xE0 DUP6 ADD MSTORE MLOAD PUSH2 0x100 DUP5 ADD MSTORE MLOAD PUSH2 0x120 DUP4 ADD MSTORE SUB SWAP1 RETURN JUMPDEST CALLVALUE PUSH2 0x100 JUMPI PUSH1 0x20 CALLDATASIZE PUSH1 0x3 NOT ADD SLT PUSH2 0x100 JUMPI PUSH1 0x4 CALLDATALOAD PUSH2 0x1526 PUSH1 0x0 SLOAD DUP3 LT PUSH2 0x2687 JUMP JUMPDEST PUSH1 0x0 MSTORE PUSH1 0x1 PUSH1 0x20 MSTORE PUSH2 0x1565 PUSH1 0x40 PUSH1 0x0 KECCAK256 PUSH2 0x1573 PUSH2 0x1551 PUSH1 0x10 PUSH2 0x154A PUSH1 0xB DUP6 ADD PUSH2 0x2825 JUMP JUMPDEST SWAP4 ADD PUSH2 0x2825 JUMP JUMPDEST PUSH1 0x40 MLOAD SWAP4 DUP5 SWAP4 PUSH1 0x40 DUP6 MSTORE PUSH1 0x40 DUP6 ADD SWAP1 PUSH2 0x259D JUMP JUMPDEST SWAP1 DUP4 DUP3 SUB PUSH1 0x20 DUP6 ADD MSTORE PUSH2 0x259D JUMP JUMPDEST SUB SWAP1 RETURN JUMPDEST CALLVALUE PUSH2 0x100 JUMPI PUSH1 0x80 CALLDATASIZE PUSH1 0x3 NOT ADD SLT PUSH2 0x100 JUMPI PUSH1 0x4 CALLDATALOAD PUSH1 0x24 CALLDATALOAD PUSH1 0x44 CALLDATALOAD SWAP1 DUP2 ISZERO ISZERO DUP1 SWAP3 SUB PUSH2 0x100 JUMPI PUSH1 0x64 CALLDATALOAD PUSH1 0x1 PUSH1 0x1 PUSH1 0x40 SHL SUB DUP2 GT PUSH2 0x100 JUMPI PUSH2 0x15BB SWAP1 CALLDATASIZE SWAP1 PUSH1 0x4 ADD PUSH2 0x2547 JUMP JUMPDEST SWAP3 PUSH2 0x15C9 PUSH1 0x0 SLOAD DUP3 LT PUSH2 0x2687 JUMP JUMPDEST DUP1 PUSH1 0x0 MSTORE PUSH1 0x1 PUSH1 0x20 MSTORE PUSH2 0x15E5 PUSH1 0xC PUSH1 0x40 PUSH1 0x0 KECCAK256 ADD SLOAD DUP4 LT PUSH2 0x26DE JUMP JUMPDEST PUSH1 0x0 SWAP3 DUP2 PUSH1 0x0 MSTORE PUSH1 0x1 PUSH1 0x20 MSTORE PUSH2 0x1601 PUSH1 0x10 PUSH1 0x40 PUSH1 0x0 KECCAK256 ADD PUSH2 0x2825 JUMP JUMPDEST PUSH1 0x0 JUMPDEST DUP2 MLOAD DUP2 LT ISZERO PUSH2 0x1892 JUMPI CALLER PUSH1 0x1 PUSH1 0x1 PUSH1 0xA0 SHL SUB PUSH2 0x1620 DUP4 DUP6 PUSH2 0x276D JUMP JUMPDEST MLOAD AND EQ PUSH2 0x162F JUMPI PUSH1 0x1 ADD PUSH2 0x1604 JUMP JUMPDEST POP POP SWAP1 SWAP2 SWAP3 POP PUSH1 0x1 JUMPDEST ISZERO PUSH2 0x184D JUMPI DUP2 PUSH1 0x0 MSTORE PUSH1 0x3 PUSH1 0x20 MSTORE PUSH1 0x40 PUSH1 0x0 KECCAK256 DUP4 PUSH1 0x0 MSTORE PUSH1 0x20 MSTORE PUSH1 0x40 PUSH1 0x0 KECCAK256 PUSH1 0x40 MLOAD SWAP1 PUSH1 0x60 DUP3 ADD DUP3 DUP2 LT PUSH1 0x1 PUSH1 0x1 PUSH1 0x40 SHL SUB DUP3 GT OR PUSH2 0xB71 JUMPI PUSH1 0x40 MSTORE DUP3 DUP3 MSTORE PUSH1 0x20 DUP3 ADD DUP7 DUP2 MSTORE PUSH1 0x40 DUP4 ADD SWAP2 CALLER DUP4 MSTORE DUP1 SLOAD PUSH1 0x1 PUSH1 0x40 SHL DUP2 LT ISZERO PUSH2 0xB71 JUMPI PUSH2 0x16A3 SWAP2 PUSH1 0x1 DUP3 ADD DUP2 SSTORE PUSH2 0x2515 JUMP JUMPDEST SWAP4 SWAP1 SWAP4 PUSH2 0xC1E JUMPI PUSH2 0x16C3 SWAP1 MLOAD ISZERO ISZERO DUP5 SWAP1 PUSH1 0xFF DUP1 NOT DUP4 SLOAD AND SWAP2 ISZERO ISZERO AND OR SWAP1 SSTORE JUMP JUMPDEST MLOAD DUP1 MLOAD PUSH1 0x1 DUP5 ADD SWAP2 PUSH1 0x1 PUSH1 0x1 PUSH1 0x40 SHL SUB DUP3 GT PUSH2 0xB71 JUMPI PUSH2 0x16E3 DUP4 SLOAD PUSH2 0x234A JUMP JUMPDEST PUSH1 0x1F DUP2 GT PUSH2 0x181B JUMPI JUMPDEST POP PUSH1 0x20 SWAP1 PUSH1 0x1F DUP4 GT PUSH1 0x1 EQ PUSH2 0x178D JUMPI DUP3 PUSH32 0x36FB090632506AEAD86459B68597320C658B8B9AF42846D69CBBF6CF953D13E7 SWAP8 SWAP7 SWAP6 SWAP4 PUSH1 0x2 SWAP6 SWAP4 PUSH2 0x1745 SWAP4 PUSH1 0x0 SWAP3 PUSH2 0xE5D JUMPI POP POP DUP2 PUSH1 0x1 SHL SWAP2 PUSH1 0x0 NOT SWAP1 PUSH1 0x3 SHL SHR NOT AND OR SWAP1 JUMP JUMPDEST SWAP1 SSTORE JUMPDEST MLOAD SWAP2 ADD DUP1 SLOAD PUSH1 0x1 PUSH1 0x1 PUSH1 0xA0 SHL SUB NOT AND PUSH1 0x1 PUSH1 0x1 PUSH1 0xA0 SHL SUB SWAP3 SWAP1 SWAP3 AND SWAP2 SWAP1 SWAP2 OR SWAP1 SSTORE PUSH1 0x40 DUP1 MLOAD SWAP2 DUP3 MSTORE PUSH1 0x20 DUP3 ADD DUP2 SWAP1 MSTORE CALLER SWAP6 DUP3 SWAP2 PUSH2 0x1788 SWAP2 SWAP1 DUP4 ADD SWAP1 PUSH2 0x24BE JUMP JUMPDEST SUB SWAP1 LOG4 STOP JUMPDEST SWAP1 PUSH1 0x1F NOT DUP4 AND SWAP2 DUP5 PUSH1 0x0 MSTORE DUP2 PUSH1 0x0 KECCAK256 SWAP3 PUSH1 0x0 JUMPDEST DUP2 DUP2 LT PUSH2 0x1803 JUMPI POP SWAP3 PUSH1 0x1 SWAP3 DUP6 SWAP3 PUSH32 0x36FB090632506AEAD86459B68597320C658B8B9AF42846D69CBBF6CF953D13E7 SWAP11 SWAP10 SWAP9 SWAP7 PUSH1 0x2 SWAP9 SWAP7 LT PUSH2 0x17EA JUMPI JUMPDEST POP POP POP DUP2 SHL ADD SWAP1 SSTORE PUSH2 0x1748 JUMP JUMPDEST ADD MLOAD PUSH1 0x0 NOT PUSH1 0xF8 DUP5 PUSH1 0x3 SHL AND SHR NOT AND SWAP1 SSTORE DUP12 DUP1 DUP1 PUSH2 0x17DD JUMP JUMPDEST SWAP3 SWAP4 PUSH1 0x20 PUSH1 0x1 DUP2 SWAP3 DUP8 DUP7 ADD MLOAD DUP2 SSTORE ADD SWAP6 ADD SWAP4 ADD PUSH2 0x17A0 JUMP JUMPDEST PUSH2 0x1847 SWAP1 DUP5 PUSH1 0x0 MSTORE PUSH1 0x20 PUSH1 0x0 KECCAK256 PUSH1 0x1F DUP6 ADD PUSH1 0x5 SHR DUP2 ADD SWAP2 PUSH1 0x20 DUP7 LT PUSH2 0xB67 JUMPI PUSH1 0x1F ADD PUSH1 0x5 SHR ADD SWAP1 PUSH2 0x280E JUMP JUMPDEST DUP10 PUSH2 0x16EC JUMP JUMPDEST PUSH1 0x40 MLOAD PUSH3 0x461BCD PUSH1 0xE5 SHL DUP2 MSTORE PUSH1 0x20 PUSH1 0x4 DUP3 ADD MSTORE PUSH1 0x1C PUSH1 0x24 DUP3 ADD MSTORE PUSH32 0x476F616C5A696C6C613A204E6F742061207374616B65686F6C64657200000000 PUSH1 0x44 DUP3 ADD MSTORE PUSH1 0x64 SWAP1 REVERT JUMPDEST POP POP SWAP1 SWAP2 SWAP3 PUSH2 0x1638 JUMP JUMPDEST CALLVALUE PUSH2 0x100 JUMPI PUSH1 0x60 CALLDATASIZE PUSH1 0x3 NOT ADD SLT PUSH2 0x100 JUMPI PUSH1 0x24 CALLDATALOAD PUSH1 0x4 CALLDATALOAD PUSH1 0x44 CALLDATALOAD PUSH1 0x1 PUSH1 0x1 PUSH1 0x40 SHL SUB DUP2 GT PUSH2 0x100 JUMPI PUSH2 0x18D2 SWAP1 CALLDATASIZE SWAP1 PUSH1 0x4 ADD PUSH2 0x2547 JUMP JUMPDEST PUSH2 0x18DF PUSH1 0x0 SLOAD DUP4 LT PUSH2 0x2687 JUMP JUMPDEST DUP2 PUSH1 0x0 MSTORE PUSH1 0x1 PUSH1 0x20 MSTORE PUSH2 0x1903 PUSH1 0x1 DUP1 PUSH1 0xA0 SHL SUB PUSH1 0x1 PUSH1 0x40 PUSH1 0x0 KECCAK256 ADD SLOAD AND CALLER EQ PUSH2 0x27C2 JUMP JUMPDEST DUP2 PUSH1 0x0 MSTORE PUSH1 0x1 PUSH1 0x20 MSTORE PUSH2 0x191F PUSH1 0xC PUSH1 0x40 PUSH1 0x0 KECCAK256 ADD SLOAD DUP5 LT PUSH2 0x26DE JUMP JUMPDEST DUP2 PUSH1 0x0 MSTORE PUSH1 0x1 PUSH1 0x20 MSTORE PUSH2 0x1939 DUP4 PUSH1 0xC PUSH1 0x40 PUSH1 0x0 KECCAK256 ADD PUSH2 0x2735 JUMP JUMPDEST POP PUSH1 0x2 DUP2 ADD DUP1 SLOAD PUSH1 0xFF DUP2 PUSH1 0x8 SHR AND ISZERO PUSH2 0x1B54 JUMPI PUSH1 0xFF DUP2 AND PUSH2 0x1B00 JUMPI PUSH1 0xFF NOT AND PUSH1 0x1 OR SWAP1 SSTORE DUP2 MLOAD PUSH1 0x3 DUP3 ADD SWAP3 SWAP1 SWAP2 PUSH1 0x1 PUSH1 0x1 PUSH1 0x40 SHL SUB DUP4 GT PUSH2 0xB71 JUMPI DUP4 DUP6 SWAP4 PUSH2 0x1982 DUP9 SWAP7 SLOAD PUSH2 0x234A JUMP JUMPDEST PUSH1 0x1F DUP2 GT PUSH2 0x1ACE JUMPI JUMPDEST POP PUSH1 0x20 PUSH1 0x1F DUP3 GT PUSH1 0x1 EQ PUSH2 0x1A3B JUMPI SWAP3 PUSH32 0xA2EFA9E8A9CB69DA31069E845D86DDC3DA31DA23669A47F5EC5F60247D31A16B SWAP5 SWAP3 PUSH2 0x19E3 DUP4 PUSH1 0x5 SWAP5 PUSH2 0x1A06 SWAP8 PUSH1 0x0 SWAP2 PUSH2 0x1A30 JUMPI POP DUP2 PUSH1 0x1 SHL SWAP2 PUSH1 0x0 NOT SWAP1 PUSH1 0x3 SHL SHR NOT AND OR SWAP1 JUMP JUMPDEST SWAP1 SSTORE JUMPDEST ADD PUSH1 0x1 PUSH1 0xFF NOT DUP3 SLOAD AND OR SWAP1 SSTORE PUSH1 0x40 MLOAD SWAP2 DUP3 SWAP2 PUSH1 0x20 DUP4 MSTORE PUSH1 0x20 DUP4 ADD SWAP1 PUSH2 0x24BE JUMP JUMPDEST SUB SWAP1 LOG3 PUSH32 0x58F6CFB6F584C040922A278034D1656F5A3B2DB9F6BB96D7FCB08E0E618BC2F1 PUSH1 0x0 DUP1 LOG3 STOP JUMPDEST SWAP1 POP DUP7 ADD MLOAD DUP14 PUSH2 0x707 JUMP JUMPDEST PUSH1 0x1F NOT DUP3 AND SWAP1 DUP4 PUSH1 0x0 MSTORE DUP1 PUSH1 0x0 KECCAK256 SWAP2 PUSH1 0x0 JUMPDEST DUP2 DUP2 LT PUSH2 0x1AB0 JUMPI POP DUP4 PUSH2 0x1A06 SWAP7 SWAP4 PUSH32 0xA2EFA9E8A9CB69DA31069E845D86DDC3DA31DA23669A47F5EC5F60247D31A16B SWAP9 SWAP7 SWAP4 PUSH1 0x5 SWAP7 PUSH1 0x1 SWAP5 LT PUSH2 0x1A97 JUMPI JUMPDEST POP POP DUP2 SHL ADD SWAP1 SSTORE PUSH2 0x19E6 JUMP JUMPDEST DUP8 ADD MLOAD PUSH1 0x0 NOT PUSH1 0xF8 DUP5 PUSH1 0x3 SHL AND SHR NOT AND SWAP1 SSTORE DUP13 DUP1 PUSH2 0x1A8B JUMP JUMPDEST DUP3 DUP9 ADD MLOAD DUP5 SSTORE DUP12 SWAP10 POP DUP11 SWAP9 POP PUSH1 0x1 SWAP1 SWAP4 ADD SWAP3 PUSH1 0x20 SWAP3 DUP4 ADD SWAP3 ADD PUSH2 0x1A4D JUMP JUMPDEST PUSH2 0x1AFA SWAP1 DUP4 PUSH1 0x0 MSTORE PUSH1 0x20 PUSH1 0x0 KECCAK256 PUSH1 0x1F DUP5 ADD PUSH1 0x5 SHR DUP2 ADD SWAP2 PUSH1 0x20 DUP6 LT PUSH2 0xB67 JUMPI PUSH1 0x1F ADD PUSH1 0x5 SHR ADD SWAP1 PUSH2 0x280E JUMP JUMPDEST DUP9 PUSH2 0x198B JUMP JUMPDEST PUSH1 0x40 MLOAD PUSH3 0x461BCD PUSH1 0xE5 SHL DUP2 MSTORE PUSH1 0x20 PUSH1 0x4 DUP3 ADD MSTORE PUSH1 0x26 PUSH1 0x24 DUP3 ADD MSTORE PUSH32 0x476F616C5A696C6C613A204D696C6573746F6E6520616C726561647920636F6D PUSH1 0x44 DUP3 ADD MSTORE PUSH6 0x1C1B195D1959 PUSH1 0xD2 SHL PUSH1 0x64 DUP3 ADD MSTORE PUSH1 0x84 SWAP1 REVERT JUMPDEST PUSH1 0x40 MLOAD PUSH3 0x461BCD PUSH1 0xE5 SHL DUP2 MSTORE PUSH1 0x20 PUSH1 0x4 DUP3 ADD MSTORE PUSH1 0x1F PUSH1 0x24 DUP3 ADD MSTORE PUSH32 0x476F616C5A696C6C613A204D696C6573746F6E65206E6F742066756E64656400 PUSH1 0x44 DUP3 ADD MSTORE PUSH1 0x64 SWAP1 REVERT JUMPDEST CALLVALUE PUSH2 0x100 JUMPI PUSH1 0x20 CALLDATASIZE PUSH1 0x3 NOT ADD SLT PUSH2 0x100 JUMPI PUSH1 0x4 CALLDATALOAD PUSH1 0x1 PUSH1 0x1 PUSH1 0x40 SHL SUB DUP2 GT PUSH2 0x100 JUMPI PUSH1 0x20 PUSH2 0x1BCE PUSH2 0x1BE1 SWAP3 CALLDATASIZE SWAP1 PUSH1 0x4 ADD PUSH2 0x2547 JUMP JUMPDEST DUP2 PUSH1 0x40 MLOAD SWAP4 DUP3 DUP6 DUP1 SWAP5 MLOAD SWAP4 DUP5 SWAP3 ADD PUSH2 0x249B JUMP JUMPDEST DUP2 ADD PUSH1 0x4 DUP2 MSTORE SUB ADD SWAP1 KECCAK256 PUSH1 0x0 DUP1 DUP3 SLOAD SWAP2 JUMPDEST DUP3 DUP2 LT PUSH2 0x1C09 JUMPI PUSH1 0x40 DUP4 DUP4 DUP3 MLOAD SWAP2 DUP3 MSTORE PUSH1 0x20 DUP3 ADD MSTORE RETURN JUMPDEST PUSH2 0x1C13 DUP2 DUP6 PUSH2 0x25DA JUMP JUMPDEST SWAP1 SLOAD SWAP1 PUSH1 0x3 SHL SHR PUSH1 0x0 MSTORE PUSH1 0x1 PUSH1 0x20 MSTORE PUSH1 0xFF PUSH1 0x9 PUSH1 0x40 PUSH1 0x0 KECCAK256 ADD SLOAD AND PUSH2 0x1C3B JUMPI JUMPDEST PUSH1 0x1 ADD PUSH2 0x1BF2 JUMP JUMPDEST SWAP1 PUSH2 0x1C47 PUSH1 0x1 SWAP2 PUSH2 0x275E JUMP JUMPDEST SWAP2 SWAP1 POP PUSH2 0x1C33 JUMP JUMPDEST CALLVALUE PUSH2 0x100 JUMPI PUSH2 0x1D3C PUSH2 0x1CCA PUSH2 0x1C63 CALLDATASIZE PUSH2 0x24E3 JUMP JUMPDEST SWAP1 PUSH1 0x0 PUSH1 0x80 PUSH1 0x40 MLOAD PUSH2 0x1C74 DUP2 PUSH2 0x2384 JUMP JUMPDEST PUSH1 0x60 DUP2 MSTORE DUP3 PUSH1 0x20 DUP3 ADD MSTORE DUP3 PUSH1 0x40 DUP3 ADD MSTORE DUP3 PUSH1 0x60 DUP3 ADD MSTORE ADD MSTORE PUSH2 0x1C99 PUSH1 0x0 SLOAD DUP3 LT PUSH2 0x2687 JUMP JUMPDEST DUP1 PUSH1 0x0 MSTORE PUSH1 0x1 PUSH1 0x20 MSTORE PUSH2 0x1CB5 PUSH1 0xC PUSH1 0x40 PUSH1 0x0 KECCAK256 ADD SLOAD DUP4 LT PUSH2 0x26DE JUMP JUMPDEST PUSH1 0x0 MSTORE PUSH1 0x1 PUSH1 0x20 MSTORE PUSH1 0xC PUSH1 0x40 PUSH1 0x0 KECCAK256 ADD PUSH2 0x2735 JUMP JUMPDEST POP PUSH1 0x1 DUP2 ADD SLOAD PUSH1 0x2 DUP3 ADD SLOAD PUSH1 0xFF PUSH1 0x5 DUP5 ADD SLOAD AND SWAP1 PUSH2 0x1CF3 PUSH1 0x40 MLOAD SWAP5 PUSH2 0x1CEE DUP7 PUSH2 0x2384 JUMP JUMPDEST PUSH2 0x23F7 JUMP JUMPDEST DUP5 MSTORE PUSH1 0x20 DUP5 ADD SWAP3 DUP4 MSTORE PUSH1 0x40 DUP5 ADD PUSH1 0xFF DUP3 AND ISZERO ISZERO DUP2 MSTORE PUSH1 0xFF PUSH1 0x60 DUP7 ADD SWAP3 PUSH1 0x8 SHR AND ISZERO ISZERO DUP3 MSTORE PUSH1 0x80 DUP6 ADD SWAP3 ISZERO ISZERO DUP4 MSTORE PUSH1 0x40 MLOAD SWAP6 DUP7 SWAP6 PUSH1 0x20 DUP8 MSTORE MLOAD PUSH1 0xA0 PUSH1 0x20 DUP9 ADD MSTORE PUSH1 0xC0 DUP8 ADD SWAP1 PUSH2 0x24BE JUMP JUMPDEST SWAP4 MLOAD PUSH1 0x40 DUP7 ADD MSTORE MLOAD ISZERO ISZERO PUSH1 0x60 DUP6 ADD MSTORE MLOAD ISZERO ISZERO PUSH1 0x80 DUP5 ADD MSTORE MLOAD ISZERO ISZERO PUSH1 0xA0 DUP4 ADD MSTORE SUB SWAP1 RETURN JUMPDEST PUSH2 0x1D68 CALLDATASIZE PUSH2 0x24E3 JUMP JUMPDEST SWAP1 PUSH2 0x1D76 PUSH1 0x0 SLOAD DUP3 LT PUSH2 0x2687 JUMP JUMPDEST DUP1 PUSH1 0x0 MSTORE PUSH1 0x1 PUSH1 0x20 MSTORE PUSH1 0xFF PUSH1 0x9 PUSH1 0x40 PUSH1 0x0 KECCAK256 ADD SLOAD AND ISZERO PUSH2 0x1FDB JUMPI PUSH1 0x0 DUP2 DUP2 MSTORE PUSH1 0x1 PUSH1 0x20 MSTORE PUSH1 0x40 SWAP1 KECCAK256 PUSH1 0x8 DUP2 ADD SLOAD PUSH1 0x7 SWAP1 SWAP2 ADD SLOAD PUSH3 0x15180 DUP1 DUP3 MUL SWAP2 DUP1 ISZERO SWAP1 DUP4 DIV SWAP1 SWAP2 EQ OR ISZERO PUSH2 0x1FC5 JUMPI PUSH2 0x1DC8 SWAP2 PUSH2 0x2751 JUMP JUMPDEST TIMESTAMP LT ISZERO PUSH2 0x1F80 JUMPI DUP1 PUSH1 0x0 MSTORE PUSH1 0x1 PUSH1 0x20 MSTORE PUSH2 0x1DEB PUSH1 0xC PUSH1 0x40 PUSH1 0x0 KECCAK256 ADD SLOAD DUP4 LT PUSH2 0x26DE JUMP JUMPDEST DUP1 PUSH1 0x0 MSTORE PUSH1 0x1 PUSH1 0x20 MSTORE PUSH1 0x40 PUSH1 0x0 KECCAK256 PUSH2 0x1E06 DUP4 PUSH1 0xC DUP4 ADD PUSH2 0x2735 JUMP JUMPDEST POP PUSH1 0x2 DUP2 ADD SWAP1 DUP2 SLOAD SWAP1 PUSH1 0xFF DUP3 PUSH1 0x8 SHR AND PUSH2 0x1F2F JUMPI PUSH1 0x1 ADD SLOAD CALLVALUE SUB PUSH2 0x1EDE JUMPI PUSH2 0x100 SWAP1 PUSH2 0xFF00 NOT AND OR SWAP1 SSTORE PUSH1 0x6 DUP2 ADD PUSH2 0x1E3F CALLVALUE DUP3 SLOAD PUSH2 0x2751 JUMP JUMPDEST SWAP1 SSTORE PUSH1 0x0 DUP3 DUP2 MSTORE PUSH1 0x2 PUSH1 0x20 SWAP1 DUP2 MSTORE PUSH1 0x40 DUP1 DUP4 KECCAK256 CALLER DUP5 MSTORE SWAP1 SWAP2 MSTORE SWAP1 KECCAK256 SLOAD ISZERO PUSH2 0x1EBD JUMPI JUMPDEST POP DUP1 PUSH1 0x0 MSTORE PUSH1 0x2 PUSH1 0x20 MSTORE PUSH1 0x40 PUSH1 0x0 KECCAK256 PUSH1 0x1 DUP1 PUSH1 0xA0 SHL SUB CALLER AND PUSH1 0x0 MSTORE PUSH1 0x20 MSTORE PUSH1 0x40 PUSH1 0x0 KECCAK256 PUSH2 0x1E8F CALLVALUE DUP3 SLOAD PUSH2 0x2751 JUMP JUMPDEST SWAP1 SSTORE PUSH32 0x4E84FD279E9B8A989CF81BCA6D0A9C62A19954AF44C7EE39600AEBB2BA4734E5 PUSH1 0x20 PUSH1 0x40 MLOAD CALLVALUE DUP2 MSTORE LOG3 STOP JUMPDEST PUSH2 0x1ED8 SWAP1 PUSH2 0x1ECE CALLER PUSH1 0xB DUP4 ADD PUSH2 0x2781 JUMP JUMPDEST PUSH1 0x10 CALLER SWAP2 ADD PUSH2 0x2781 JUMP JUMPDEST DUP3 PUSH2 0x1E61 JUMP JUMPDEST PUSH1 0x40 MLOAD PUSH3 0x461BCD PUSH1 0xE5 SHL DUP2 MSTORE PUSH1 0x20 PUSH1 0x4 DUP3 ADD MSTORE PUSH1 0x23 PUSH1 0x24 DUP3 ADD MSTORE PUSH32 0x476F616C5A696C6C613A20496E636F72726563742066756E64696E6720616D6F PUSH1 0x44 DUP3 ADD MSTORE PUSH3 0x1D5B9D PUSH1 0xEA SHL PUSH1 0x64 DUP3 ADD MSTORE PUSH1 0x84 SWAP1 REVERT JUMPDEST PUSH1 0x40 MLOAD PUSH3 0x461BCD PUSH1 0xE5 SHL DUP2 MSTORE PUSH1 0x20 PUSH1 0x4 DUP3 ADD MSTORE PUSH1 0x23 PUSH1 0x24 DUP3 ADD MSTORE PUSH32 0x476F616C5A696C6C613A204D696C6573746F6E6520616C72656164792066756E PUSH1 0x44 DUP3 ADD MSTORE PUSH3 0x191959 PUSH1 0xEA SHL PUSH1 0x64 DUP3 ADD MSTORE PUSH1 0x84 SWAP1 REVERT JUMPDEST PUSH1 0x40 MLOAD PUSH3 0x461BCD PUSH1 0xE5 SHL DUP2 MSTORE PUSH1 0x20 PUSH1 0x4 DUP3 ADD MSTORE PUSH1 0x1D PUSH1 0x24 DUP3 ADD MSTORE PUSH32 0x476F616C5A696C6C613A2043616D706169676E2068617320656E646564000000 PUSH1 0x44 DUP3 ADD MSTORE PUSH1 0x64 SWAP1 REVERT JUMPDEST PUSH4 0x4E487B71 PUSH1 0xE0 SHL PUSH1 0x0 MSTORE PUSH1 0x11 PUSH1 0x4 MSTORE PUSH1 0x24 PUSH1 0x0 REVERT JUMPDEST PUSH1 0x40 MLOAD PUSH3 0x461BCD PUSH1 0xE5 SHL DUP2 MSTORE PUSH1 0x20 PUSH1 0x4 DUP3 ADD MSTORE PUSH1 0x21 PUSH1 0x24 DUP3 ADD MSTORE PUSH32 0x476F616C5A696C6C613A2043616D706169676E206973206E6F74206163746976 PUSH1 0x44 DUP3 ADD MSTORE PUSH1 0x65 PUSH1 0xF8 SHL PUSH1 0x64 DUP3 ADD MSTORE PUSH1 0x84 SWAP1 REVERT JUMPDEST CALLVALUE PUSH2 0x100 JUMPI PUSH2 0x2038 CALLDATASIZE PUSH2 0x24E3 JUMP JUMPDEST DUP2 DUP2 LT PUSH2 0x2110 JUMPI DUP2 DUP2 SUB SWAP1 DUP2 GT PUSH2 0x1FC5 JUMPI PUSH1 0x1 DUP2 ADD DUP1 SWAP2 GT PUSH2 0x1FC5 JUMPI PUSH2 0x205D DUP2 PUSH2 0x25F2 JUMP JUMPDEST SWAP2 PUSH2 0x206B PUSH1 0x40 MLOAD SWAP4 DUP5 PUSH2 0x23D6 JUMP JUMPDEST DUP2 DUP4 MSTORE PUSH2 0x2077 DUP3 PUSH2 0x25F2 JUMP JUMPDEST PUSH1 0x20 DUP5 ADD SWAP1 PUSH1 0x1F NOT ADD CALLDATASIZE DUP3 CALLDATACOPY PUSH1 0x0 JUMPDEST DUP4 DUP2 LT DUP1 PUSH2 0x20FC JUMPI JUMPDEST ISZERO PUSH2 0x20B7 JUMPI DUP1 PUSH2 0x20A2 PUSH2 0x20B2 SWAP3 DUP6 PUSH2 0x2751 JUMP JUMPDEST PUSH2 0x20AC DUP3 DUP9 PUSH2 0x276D JUMP JUMPDEST MSTORE PUSH2 0x275E JUMP JUMPDEST PUSH2 0x2086 JUMP JUMPDEST DUP2 DUP6 PUSH1 0x40 MLOAD SWAP2 DUP3 SWAP2 PUSH1 0x20 DUP4 ADD SWAP1 PUSH1 0x20 DUP5 MSTORE MLOAD DUP1 SWAP2 MSTORE PUSH1 0x40 DUP4 ADD SWAP2 SWAP1 PUSH1 0x0 JUMPDEST DUP2 DUP2 LT PUSH2 0x20E3 JUMPI POP POP POP SUB SWAP1 RETURN JUMPDEST DUP3 MLOAD DUP5 MSTORE DUP6 SWAP5 POP PUSH1 0x20 SWAP4 DUP5 ADD SWAP4 SWAP1 SWAP3 ADD SWAP2 PUSH1 0x1 ADD PUSH2 0x20D5 JUMP JUMPDEST POP PUSH2 0x2107 DUP2 DUP5 PUSH2 0x2751 JUMP JUMPDEST PUSH1 0x0 SLOAD GT PUSH2 0x208F JUMP JUMPDEST PUSH1 0x40 MLOAD PUSH3 0x461BCD PUSH1 0xE5 SHL DUP2 MSTORE PUSH1 0x20 PUSH1 0x4 DUP3 ADD MSTORE PUSH1 0x18 PUSH1 0x24 DUP3 ADD MSTORE PUSH32 0x476F616C5A696C6C613A20496E76616C69642072616E67650000000000000000 PUSH1 0x44 DUP3 ADD MSTORE PUSH1 0x64 SWAP1 REVERT JUMPDEST CALLVALUE PUSH2 0x100 JUMPI PUSH1 0x60 CALLDATASIZE PUSH1 0x3 NOT ADD SLT PUSH2 0x100 JUMPI PUSH1 0x44 CALLDATALOAD PUSH1 0x4 CALLDATALOAD PUSH1 0x0 MSTORE PUSH1 0x3 PUSH1 0x20 MSTORE PUSH1 0x40 PUSH1 0x0 KECCAK256 PUSH1 0x24 CALLDATALOAD PUSH1 0x0 MSTORE PUSH1 0x20 MSTORE PUSH1 0x40 PUSH1 0x0 KECCAK256 SWAP1 DUP2 SLOAD DUP2 LT ISZERO PUSH2 0x100 JUMPI PUSH2 0x219A SWAP2 PUSH2 0x2515 JUMP JUMPDEST POP PUSH1 0xFF DUP2 SLOAD AND PUSH2 0x21AC PUSH1 0x1 DUP4 ADD PUSH2 0x23F7 JUMP JUMPDEST SWAP2 PUSH1 0x2 PUSH1 0x1 DUP1 PUSH1 0xA0 SHL SUB SWAP2 ADD SLOAD AND PUSH2 0x21D8 PUSH1 0x40 MLOAD SWAP4 DUP5 SWAP4 ISZERO ISZERO DUP5 MSTORE PUSH1 0x60 PUSH1 0x20 DUP6 ADD MSTORE PUSH1 0x60 DUP5 ADD SWAP1 PUSH2 0x24BE JUMP JUMPDEST SWAP1 PUSH1 0x40 DUP4 ADD MSTORE SUB SWAP1 RETURN JUMPDEST CALLVALUE PUSH2 0x100 JUMPI PUSH2 0x2201 PUSH2 0x21F3 CALLDATASIZE PUSH2 0x24E3 JUMP JUMPDEST SWAP1 PUSH2 0x1C99 PUSH1 0x0 SLOAD DUP3 LT PUSH2 0x2687 JUMP JUMPDEST POP PUSH2 0x2213 PUSH1 0x3 PUSH1 0x4 DUP4 ADD SLOAD SWAP3 ADD PUSH2 0x23F7 JUMP JUMPDEST PUSH2 0x1573 PUSH1 0x40 MLOAD SWAP3 DUP4 SWAP3 DUP4 PUSH2 0x24F9 JUMP JUMPDEST CALLVALUE PUSH2 0x100 JUMPI PUSH1 0x20 CALLDATASIZE PUSH1 0x3 NOT ADD SLT PUSH2 0x100 JUMPI PUSH1 0x4 CALLDATALOAD PUSH1 0x0 MSTORE PUSH1 0x1 PUSH1 0x20 MSTORE PUSH1 0x40 PUSH1 0x0 KECCAK256 DUP1 SLOAD PUSH1 0x1 PUSH1 0xA0 SHL PUSH1 0x1 SWAP1 SUB PUSH1 0x1 DUP4 ADD SLOAD AND SWAP2 PUSH1 0x2 DUP2 ADD PUSH2 0x2262 SWAP1 PUSH2 0x23F7 JUMP JUMPDEST SWAP1 PUSH2 0x226F PUSH1 0x3 DUP3 ADD PUSH2 0x23F7 JUMP JUMPDEST PUSH2 0x227B PUSH1 0x4 DUP4 ADD PUSH2 0x23F7 JUMP JUMPDEST SWAP1 PUSH1 0x5 DUP4 ADD SLOAD SWAP2 PUSH1 0x6 DUP5 ADD SLOAD PUSH1 0x7 DUP6 ADD SLOAD PUSH1 0x8 DUP7 ADD SLOAD SWAP2 PUSH1 0x9 DUP8 ADD SLOAD PUSH1 0xFF AND SWAP4 PUSH1 0xD DUP9 ADD SLOAD SWAP6 PUSH1 0xE DUP10 ADD PUSH2 0x22AE SWAP1 PUSH2 0x23F7 JUMP JUMPDEST SWAP9 PUSH1 0xF ADD PUSH2 0x22BB SWAP1 PUSH2 0x23F7 JUMP JUMPDEST SWAP10 PUSH1 0x40 MLOAD SWAP13 DUP14 SWAP13 DUP14 MSTORE PUSH1 0x20 DUP14 ADD MSTORE PUSH1 0x40 DUP13 ADD PUSH2 0x1A0 SWAP1 MSTORE PUSH2 0x1A0 DUP13 ADD PUSH2 0x22E0 SWAP2 PUSH2 0x24BE JUMP JUMPDEST DUP12 DUP2 SUB PUSH1 0x60 DUP14 ADD MSTORE PUSH2 0x22F1 SWAP2 PUSH2 0x24BE JUMP JUMPDEST DUP11 DUP2 SUB PUSH1 0x80 DUP13 ADD MSTORE PUSH2 0x2302 SWAP2 PUSH2 0x24BE JUMP JUMPDEST SWAP6 PUSH1 0xA0 DUP11 ADD MSTORE PUSH1 0xC0 DUP10 ADD MSTORE PUSH1 0xE0 DUP9 ADD MSTORE PUSH2 0x100 DUP8 ADD MSTORE ISZERO ISZERO PUSH2 0x120 DUP7 ADD MSTORE PUSH2 0x140 DUP6 ADD MSTORE DUP4 DUP2 SUB PUSH2 0x160 DUP6 ADD MSTORE PUSH2 0x2338 SWAP2 PUSH2 0x24BE JUMP JUMPDEST DUP3 DUP2 SUB PUSH2 0x180 DUP5 ADD MSTORE PUSH2 0x1573 SWAP2 PUSH2 0x24BE JUMP JUMPDEST SWAP1 PUSH1 0x1 DUP3 DUP2 SHR SWAP3 AND DUP1 ISZERO PUSH2 0x237A JUMPI JUMPDEST PUSH1 0x20 DUP4 LT EQ PUSH2 0x2364 JUMPI JUMP JUMPDEST PUSH4 0x4E487B71 PUSH1 0xE0 SHL PUSH1 0x0 MSTORE PUSH1 0x22 PUSH1 0x4 MSTORE PUSH1 0x24 PUSH1 0x0 REVERT JUMPDEST SWAP2 PUSH1 0x7F AND SWAP2 PUSH2 0x2359 JUMP JUMPDEST PUSH1 0xA0 DUP2 ADD SWAP1 DUP2 LT PUSH1 0x1 PUSH1 0x1 PUSH1 0x40 SHL SUB DUP3 GT OR PUSH2 0xB71 JUMPI PUSH1 0x40 MSTORE JUMP JUMPDEST PUSH2 0x120 DUP2 ADD SWAP1 DUP2 LT PUSH1 0x1 PUSH1 0x1 PUSH1 0x40 SHL SUB DUP3 GT OR PUSH2 0xB71 JUMPI PUSH1 0x40 MSTORE JUMP JUMPDEST PUSH1 0x80 DUP2 ADD SWAP1 DUP2 LT PUSH1 0x1 PUSH1 0x1 PUSH1 0x40 SHL SUB DUP3 GT OR PUSH2 0xB71 JUMPI PUSH1 0x40 MSTORE JUMP JUMPDEST SWAP1 PUSH1 0x1F DUP1 NOT SWAP2 ADD AND DUP2 ADD SWAP1 DUP2 LT PUSH1 0x1 PUSH1 0x1 PUSH1 0x40 SHL SUB DUP3 GT OR PUSH2 0xB71 JUMPI PUSH1 0x40 MSTORE JUMP JUMPDEST SWAP1 PUSH1 0x40 MLOAD SWAP2 DUP3 PUSH1 0x0 DUP3 SLOAD SWAP3 PUSH2 0x240B DUP5 PUSH2 0x234A JUMP JUMPDEST DUP1 DUP5 MSTORE SWAP4 PUSH1 0x1 DUP2 AND SWAP1 DUP2 ISZERO PUSH2 0x2479 JUMPI POP PUSH1 0x1 EQ PUSH2 0x2432 JUMPI JUMPDEST POP PUSH2 0x2430 SWAP3 POP SUB DUP4 PUSH2 0x23D6 JUMP JUMPDEST JUMP JUMPDEST SWAP1 POP PUSH1 0x0 SWAP3 SWAP2 SWAP3 MSTORE PUSH1 0x20 PUSH1 0x0 KECCAK256 SWAP1 PUSH1 0x0 SWAP2 JUMPDEST DUP2 DUP4 LT PUSH2 0x245D JUMPI POP POP SWAP1 PUSH1 0x20 PUSH2 0x2430 SWAP3 DUP3 ADD ADD CODESIZE PUSH2 0x2423 JUMP JUMPDEST PUSH1 0x20 SWAP2 SWAP4 POP DUP1 PUSH1 0x1 SWAP2 SLOAD DUP4 DUP6 DUP10 ADD ADD MSTORE ADD SWAP2 ADD SWAP1 SWAP2 DUP5 SWAP3 PUSH2 0x2444 JUMP JUMPDEST SWAP1 POP PUSH1 0x20 SWAP3 POP PUSH2 0x2430 SWAP5 SWAP2 POP PUSH1 0xFF NOT AND DUP3 DUP5 ADD MSTORE ISZERO ISZERO PUSH1 0x5 SHL DUP3 ADD ADD CODESIZE PUSH2 0x2423 JUMP JUMPDEST PUSH1 0x0 JUMPDEST DUP4 DUP2 LT PUSH2 0x24AE JUMPI POP POP PUSH1 0x0 SWAP2 ADD MSTORE JUMP JUMPDEST DUP2 DUP2 ADD MLOAD DUP4 DUP3 ADD MSTORE PUSH1 0x20 ADD PUSH2 0x249E JUMP JUMPDEST SWAP1 PUSH1 0x20 SWAP2 PUSH2 0x24D7 DUP2 MLOAD DUP1 SWAP3 DUP2 DUP6 MSTORE DUP6 DUP1 DUP7 ADD SWAP2 ADD PUSH2 0x249B JUMP JUMPDEST PUSH1 0x1F ADD PUSH1 0x1F NOT AND ADD ADD SWAP1 JUMP JUMPDEST PUSH1 0x40 SWAP1 PUSH1 0x3 NOT ADD SLT PUSH2 0x100 JUMPI PUSH1 0x4 CALLDATALOAD SWAP1 PUSH1 0x24 CALLDATALOAD SWAP1 JUMP JUMPDEST SWAP3 SWAP2 SWAP1 PUSH2 0x2510 PUSH1 0x20 SWAP2 PUSH1 0x40 DUP7 MSTORE PUSH1 0x40 DUP7 ADD SWAP1 PUSH2 0x24BE JUMP JUMPDEST SWAP4 ADD MSTORE JUMP JUMPDEST DUP1 SLOAD DUP3 LT ISZERO PUSH2 0x2531 JUMPI PUSH1 0x0 MSTORE PUSH1 0x3 PUSH1 0x20 PUSH1 0x0 KECCAK256 SWAP2 MUL ADD SWAP1 PUSH1 0x0 SWAP1 JUMP JUMPDEST PUSH4 0x4E487B71 PUSH1 0xE0 SHL PUSH1 0x0 MSTORE PUSH1 0x32 PUSH1 0x4 MSTORE PUSH1 0x24 PUSH1 0x0 REVERT JUMPDEST DUP2 PUSH1 0x1F DUP3 ADD SLT ISZERO PUSH2 0x100 JUMPI DUP1 CALLDATALOAD SWAP1 PUSH1 0x1 PUSH1 0x1 PUSH1 0x40 SHL SUB DUP3 GT PUSH2 0xB71 JUMPI PUSH1 0x40 MLOAD SWAP3 PUSH2 0x257B PUSH1 0x1F DUP5 ADD PUSH1 0x1F NOT AND PUSH1 0x20 ADD DUP6 PUSH2 0x23D6 JUMP JUMPDEST DUP3 DUP5 MSTORE PUSH1 0x20 DUP4 DUP4 ADD ADD GT PUSH2 0x100 JUMPI DUP2 PUSH1 0x0 SWAP3 PUSH1 0x20 DUP1 SWAP4 ADD DUP4 DUP7 ADD CALLDATACOPY DUP4 ADD ADD MSTORE SWAP1 JUMP JUMPDEST SWAP1 PUSH1 0x20 DUP1 DUP4 MLOAD SWAP3 DUP4 DUP2 MSTORE ADD SWAP3 ADD SWAP1 PUSH1 0x0 JUMPDEST DUP2 DUP2 LT PUSH2 0x25BB JUMPI POP POP POP SWAP1 JUMP JUMPDEST DUP3 MLOAD PUSH1 0x1 PUSH1 0x1 PUSH1 0xA0 SHL SUB AND DUP5 MSTORE PUSH1 0x20 SWAP4 DUP5 ADD SWAP4 SWAP1 SWAP3 ADD SWAP2 PUSH1 0x1 ADD PUSH2 0x25AE JUMP JUMPDEST DUP1 SLOAD DUP3 LT ISZERO PUSH2 0x2531 JUMPI PUSH1 0x0 MSTORE PUSH1 0x20 PUSH1 0x0 KECCAK256 ADD SWAP1 PUSH1 0x0 SWAP1 JUMP JUMPDEST PUSH1 0x1 PUSH1 0x1 PUSH1 0x40 SHL SUB DUP2 GT PUSH2 0xB71 JUMPI PUSH1 0x5 SHL PUSH1 0x20 ADD SWAP1 JUMP JUMPDEST SWAP1 DUP1 PUSH1 0x1F DUP4 ADD SLT ISZERO PUSH2 0x100 JUMPI DUP2 CALLDATALOAD PUSH2 0x2620 DUP2 PUSH2 0x25F2 JUMP JUMPDEST SWAP3 PUSH2 0x262E PUSH1 0x40 MLOAD SWAP5 DUP6 PUSH2 0x23D6 JUMP JUMPDEST DUP2 DUP5 MSTORE PUSH1 0x20 DUP1 DUP6 ADD SWAP3 PUSH1 0x5 SHL DUP3 ADD ADD SWAP2 DUP4 DUP4 GT PUSH2 0x100 JUMPI PUSH1 0x20 DUP3 ADD SWAP1 JUMPDEST DUP4 DUP3 LT PUSH2 0x265A JUMPI POP POP POP POP POP SWAP1 JUMP JUMPDEST DUP2 CALLDATALOAD PUSH1 0x1 PUSH1 0x1 PUSH1 0x40 SHL SUB DUP2 GT PUSH2 0x100 JUMPI PUSH1 0x20 SWAP2 PUSH2 0x267C DUP8 DUP5 DUP1 SWAP5 DUP9 ADD ADD PUSH2 0x2547 JUMP JUMPDEST DUP2 MSTORE ADD SWAP2 ADD SWAP1 PUSH2 0x264B JUMP JUMPDEST ISZERO PUSH2 0x268E JUMPI JUMP JUMPDEST PUSH1 0x40 MLOAD PUSH3 0x461BCD PUSH1 0xE5 SHL DUP2 MSTORE PUSH1 0x20 PUSH1 0x4 DUP3 ADD MSTORE PUSH1 0x22 PUSH1 0x24 DUP3 ADD MSTORE PUSH32 0x476F616C5A696C6C613A2043616D706169676E20646F6573206E6F7420657869 PUSH1 0x44 DUP3 ADD MSTORE PUSH2 0x1CDD PUSH1 0xF2 SHL PUSH1 0x64 DUP3 ADD MSTORE PUSH1 0x84 SWAP1 REVERT JUMPDEST ISZERO PUSH2 0x26E5 JUMPI JUMP JUMPDEST PUSH1 0x40 MLOAD PUSH3 0x461BCD PUSH1 0xE5 SHL DUP2 MSTORE PUSH1 0x20 PUSH1 0x4 DUP3 ADD MSTORE PUSH1 0x22 PUSH1 0x24 DUP3 ADD MSTORE PUSH32 0x476F616C5A696C6C613A20496E76616C6964206D696C6573746F6E6520696E64 PUSH1 0x44 DUP3 ADD MSTORE PUSH2 0xCAF PUSH1 0xF3 SHL PUSH1 0x64 DUP3 ADD MSTORE PUSH1 0x84 SWAP1 REVERT JUMPDEST DUP1 SLOAD DUP3 LT ISZERO PUSH2 0x2531 JUMPI PUSH1 0x0 MSTORE PUSH1 0x6 PUSH1 0x20 PUSH1 0x0 KECCAK256 SWAP2 MUL ADD SWAP1 PUSH1 0x0 SWAP1 JUMP JUMPDEST SWAP2 SWAP1 DUP3 ADD DUP1 SWAP3 GT PUSH2 0x1FC5 JUMPI JUMP JUMPDEST PUSH1 0x0 NOT DUP2 EQ PUSH2 0x1FC5 JUMPI PUSH1 0x1 ADD SWAP1 JUMP JUMPDEST DUP1 MLOAD DUP3 LT ISZERO PUSH2 0x2531 JUMPI PUSH1 0x20 SWAP2 PUSH1 0x5 SHL ADD ADD SWAP1 JUMP JUMPDEST DUP1 SLOAD PUSH1 0x1 PUSH1 0x40 SHL DUP2 LT ISZERO PUSH2 0xB71 JUMPI PUSH2 0x279E SWAP2 PUSH1 0x1 DUP3 ADD DUP2 SSTORE PUSH2 0x25DA JUMP JUMPDEST DUP2 SLOAD PUSH1 0x1 PUSH1 0x1 PUSH1 0xA0 SHL SUB SWAP4 DUP5 AND PUSH1 0x3 SWAP3 SWAP1 SWAP3 SHL SWAP2 DUP3 SHL SWAP4 SWAP1 SWAP2 SHL NOT AND SWAP2 SWAP1 SWAP2 OR SWAP1 SSTORE JUMP JUMPDEST ISZERO PUSH2 0x27C9 JUMPI JUMP JUMPDEST PUSH1 0x40 MLOAD PUSH3 0x461BCD PUSH1 0xE5 SHL DUP2 MSTORE PUSH1 0x20 PUSH1 0x4 DUP3 ADD MSTORE PUSH1 0x1F PUSH1 0x24 DUP3 ADD MSTORE PUSH32 0x476F616C5A696C6C613A204E6F742063616D706169676E2063726561746F7200 PUSH1 0x44 DUP3 ADD MSTORE PUSH1 0x64 SWAP1 REVERT JUMPDEST DUP2 DUP2 LT PUSH2 0x2819 JUMPI POP POP JUMP JUMPDEST PUSH1 0x0 DUP2 SSTORE PUSH1 0x1 ADD PUSH2 0x280E JUMP JUMPDEST SWAP1 PUSH1 0x40 MLOAD SWAP2 DUP3 DUP2 SLOAD SWAP2 DUP3 DUP3 MSTORE PUSH1 0x20 DUP3 ADD SWAP1 PUSH1 0x0 MSTORE PUSH1 0x20 PUSH1 0x0 KECCAK256 SWAP3 PUSH1 0x0 JUMPDEST DUP2 DUP2 LT PUSH2 0x2857 JUMPI POP POP PUSH2 0x2430 SWAP3 POP SUB DUP4 PUSH2 0x23D6 JUMP JUMPDEST DUP5 SLOAD PUSH1 0x1 PUSH1 0x1 PUSH1 0xA0 SHL SUB AND DUP4 MSTORE PUSH1 0x1 SWAP5 DUP6 ADD SWAP5 DUP8 SWAP5 POP PUSH1 0x20 SWAP1 SWAP4 ADD SWAP3 ADD PUSH2 0x2842 JUMP INVALID LOG2 PUSH5 0x6970667358 0x22 SLT KECCAK256 PC DUP8 0xB8 LOG4 PUSH25 0xDECBD44BD10DE20861EEA0D103764F04896868A662EB6BD92C ADDRESS PUSH6 0x64736F6C6343 STOP ADDMOD SHR STOP CALLER "},"methodIdentifiers":{"campaignCounter()":"fca604d7","campaigns(uint256)":"141961bc","categoryToCampaigns(string,uint256)":"b6d07a43","completeMilestone(uint256,uint256,string)":"7fbedb75","createCampaign(string,string,string,uint256,uint256,string[],uint256[],string,string,string[])":"d59a94d7","donations(uint256,address)":"ee1554a3","fundMilestone(uint256,uint256)":"5afce31e","getCampaignDetails(uint256)":"d993de62","getCampaignMetadata(uint256)":"8e3dfbbb","getCampaignParticipants(uint256)":"8c6ab238","getCampaignsByRange(uint256,uint256)":"3b30f38d","getCategoryStats(string)":"7b201441","getMilestoneMetadata(uint256,uint256)":"69b660de","getMilestoneProof(uint256,uint256)":"2e01ec66","getMilestoneStatus(uint256,uint256)":"e8049da1","milestoneVotes(uint256,uint256,uint256)":"36738c1e","reviewMilestone(uint256,uint256)":"fc9a7b31","submitVote(uint256,uint256,bool,string)":"8a8d30aa"}}}}}